{
  "_format": "hh-sol-artifact-1",
  "contractName": "Logistics",
  "sourceName": "contracts/Logistics.sol",
  "address": "0x0",
  "abi": [
    {
      "inputs": [],
      "name": "AccessControlBadConfirmation",
      "type": "error"
    },
    {
      "inputs": [
        {
          "internalType": "address",
          "name": "account",
          "type": "address"
        },
        {
          "internalType": "bytes32",
          "name": "neededRole",
          "type": "bytes32"
        }
      ],
      "name": "AccessControlUnauthorizedAccount",
      "type": "error"
    },
    {
      "anonymous": false,
      "inputs": [
        {
          "indexed": true,
          "internalType": "bytes32",
          "name": "role",
          "type": "bytes32"
        },
        {
          "indexed": true,
          "internalType": "bytes32",
          "name": "previousAdminRole",
          "type": "bytes32"
        },
        {
          "indexed": true,
          "internalType": "bytes32",
          "name": "newAdminRole",
          "type": "bytes32"
        }
      ],
      "name": "RoleAdminChanged",
      "type": "event"
    },
    {
      "anonymous": false,
      "inputs": [
        {
          "indexed": true,
          "internalType": "bytes32",
          "name": "role",
          "type": "bytes32"
        },
        {
          "indexed": true,
          "internalType": "address",
          "name": "account",
          "type": "address"
        },
        {
          "indexed": true,
          "internalType": "address",
          "name": "sender",
          "type": "address"
        }
      ],
      "name": "RoleGranted",
      "type": "event"
    },
    {
      "anonymous": false,
      "inputs": [
        {
          "indexed": true,
          "internalType": "bytes32",
          "name": "role",
          "type": "bytes32"
        },
        {
          "indexed": true,
          "internalType": "address",
          "name": "account",
          "type": "address"
        },
        {
          "indexed": true,
          "internalType": "address",
          "name": "sender",
          "type": "address"
        }
      ],
      "name": "RoleRevoked",
      "type": "event"
    },
    {
      "inputs": [],
      "name": "DEFAULT_ADMIN_ROLE",
      "outputs": [
        {
          "internalType": "bytes32",
          "name": "",
          "type": "bytes32"
        }
      ],
      "stateMutability": "view",
      "type": "function"
    },
    {
      "inputs": [
        {
          "internalType": "string",
          "name": "name",
          "type": "string"
        },
        {
          "internalType": "uint256",
          "name": "price",
          "type": "uint256"
        }
      ],
      "name": "addLogistics",
      "outputs": [
        {
          "internalType": "uint256",
          "name": "",
          "type": "uint256"
        }
      ],
      "stateMutability": "nonpayable",
      "type": "function"
    },
    {
      "inputs": [],
      "name": "getAllLogistics",
      "outputs": [
        {
          "components": [
            {
              "internalType": "uint256",
              "name": "id",
              "type": "uint256"
            },
            {
              "internalType": "string",
              "name": "name",
              "type": "string"
            },
            {
              "internalType": "address",
              "name": "owner",
              "type": "address"
            },
            {
              "internalType": "uint256",
              "name": "price",
              "type": "uint256"
            }
          ],
          "internalType": "struct Logistics.Logistic[]",
          "name": "",
          "type": "tuple[]"
        }
      ],
      "stateMutability": "view",
      "type": "function"
    },
    {
      "inputs": [
        {
          "internalType": "uint256",
          "name": "id",
          "type": "uint256"
        }
      ],
      "name": "getLogistic",
      "outputs": [
        {
          "components": [
            {
              "internalType": "uint256",
              "name": "id",
              "type": "uint256"
            },
            {
              "internalType": "string",
              "name": "name",
              "type": "string"
            },
            {
              "internalType": "address",
              "name": "owner",
              "type": "address"
            },
            {
              "internalType": "uint256",
              "name": "price",
              "type": "uint256"
            }
          ],
          "internalType": "struct Logistics.Logistic",
          "name": "",
          "type": "tuple"
        }
      ],
      "stateMutability": "view",
      "type": "function"
    },
    {
      "inputs": [
        {
          "internalType": "bytes32",
          "name": "role",
          "type": "bytes32"
        }
      ],
      "name": "getRoleAdmin",
      "outputs": [
        {
          "internalType": "bytes32",
          "name": "",
          "type": "bytes32"
        }
      ],
      "stateMutability": "view",
      "type": "function"
    },
    {
      "inputs": [
        {
          "internalType": "bytes32",
          "name": "role",
          "type": "bytes32"
        },
        {
          "internalType": "address",
          "name": "account",
          "type": "address"
        }
      ],
      "name": "grantRole",
      "outputs": [],
      "stateMutability": "nonpayable",
      "type": "function"
    },
    {
      "inputs": [
        {
          "internalType": "bytes32",
          "name": "role",
          "type": "bytes32"
        },
        {
          "internalType": "address",
          "name": "account",
          "type": "address"
        }
      ],
      "name": "hasRole",
      "outputs": [
        {
          "internalType": "bool",
          "name": "",
          "type": "bool"
        }
      ],
      "stateMutability": "view",
      "type": "function"
    },
    {
      "inputs": [
        {
          "internalType": "uint256",
          "name": "",
          "type": "uint256"
        }
      ],
      "name": "logistics",
      "outputs": [
        {
          "internalType": "uint256",
          "name": "id",
          "type": "uint256"
        },
        {
          "internalType": "string",
          "name": "name",
          "type": "string"
        },
        {
          "internalType": "address",
          "name": "owner",
          "type": "address"
        },
        {
          "internalType": "uint256",
          "name": "price",
          "type": "uint256"
        }
      ],
      "stateMutability": "view",
      "type": "function"
    },
    {
      "inputs": [],
      "name": "logisticsIdCounter",
      "outputs": [
        {
          "internalType": "uint256",
          "name": "_value",
          "type": "uint256"
        }
      ],
      "stateMutability": "view",
      "type": "function"
    },
    {
      "inputs": [
        {
          "internalType": "uint256",
          "name": "id",
          "type": "uint256"
        }
      ],
      "name": "removeLogistic",
      "outputs": [],
      "stateMutability": "nonpayable",
      "type": "function"
    },
    {
      "inputs": [
        {
          "internalType": "bytes32",
          "name": "role",
          "type": "bytes32"
        },
        {
          "internalType": "address",
          "name": "callerConfirmation",
          "type": "address"
        }
      ],
      "name": "renounceRole",
      "outputs": [],
      "stateMutability": "nonpayable",
      "type": "function"
    },
    {
      "inputs": [
        {
          "internalType": "bytes32",
          "name": "role",
          "type": "bytes32"
        },
        {
          "internalType": "address",
          "name": "account",
          "type": "address"
        }
      ],
      "name": "revokeRole",
      "outputs": [],
      "stateMutability": "nonpayable",
      "type": "function"
    },
    {
      "inputs": [
        {
          "internalType": "bytes4",
          "name": "interfaceId",
          "type": "bytes4"
        }
      ],
      "name": "supportsInterface",
      "outputs": [
        {
          "internalType": "bool",
          "name": "",
          "type": "bool"
        }
      ],
      "stateMutability": "view",
      "type": "function"
    }
  ],
  "bytecode": "0x608060405234801561001057600080fd5b50611c61806100206000396000f3fe608060405234801561001057600080fd5b50600436106100ce5760003560e01c806356a379d51161008c5780639d12d01c116100665780639d12d01c14610235578063a217fddf14610268578063b05b10e914610286578063d547741f146102a4576100ce565b806356a379d5146101b95780637c1df52e146101e957806391d1485414610205576100ce565b8062da1487146100d357806301ffc9a7146100f157806313ded4c414610121578063248a9ca3146101515780632f2ff15d1461018157806336568abe1461019d575b600080fd5b6100db6102c0565b6040516100e89190611114565b60405180910390f35b61010b60048036038101906101069190611191565b6102cc565b60405161011891906111d9565b60405180910390f35b61013b60048036038101906101369190611220565b610346565b6040516101489190611390565b60405180910390f35b61016b600480360381019061016691906113e8565b6104c2565b6040516101789190611424565b60405180910390f35b61019b6004803603810190610196919061146b565b6104e1565b005b6101b760048036038101906101b2919061146b565b610503565b005b6101d360048036038101906101ce9190611510565b61057e565b6040516101e09190611114565b60405180910390f35b61020360048036038101906101fe9190611220565b610715565b005b61021f600480360381019061021a919061146b565b6107dd565b60405161022c91906111d9565b60405180910390f35b61024f600480360381019061024a9190611220565b610847565b60405161025f94939291906115c9565b60405180910390f35b61027061091f565b60405161027d9190611424565b60405180910390f35b61028e610926565b60405161029b919061173a565b60405180910390f35b6102be60048036038101906102b9919061146b565b610b00565b005b60048060000154905081565b60007f7965db0b000000000000000000000000000000000000000000000000000000007bffffffffffffffffffffffffffffffffffffffffffffffffffffffff1916827bffffffffffffffffffffffffffffffffffffffffffffffffffffffff1916148061033f575061033e82610b22565b5b9050919050565b61034e611060565b610362826001610b8c90919063ffffffff16565b6103a1576040517f08c379a0000000000000000000000000000000000000000000000000000000008152600401610398906117a8565b60405180910390fd5b60036000838152602001908152602001600020604051806080016040529081600082015481526020016001820180546103d9906117f7565b80601f0160208091040260200160405190810160405280929190818152602001828054610405906117f7565b80156104525780601f1061042757610100808354040283529160200191610452565b820191906000526020600020905b81548152906001019060200180831161043557829003601f168201915b505050505081526020016002820160009054906101000a900473ffffffffffffffffffffffffffffffffffffffff1673ffffffffffffffffffffffffffffffffffffffff1673ffffffffffffffffffffffffffffffffffffffff1681526020016003820154815250509050919050565b6000806000838152602001908152602001600020600101549050919050565b6104ea826104c2565b6104f381610ba6565b6104fd8383610bba565b50505050565b61050b610cab565b73ffffffffffffffffffffffffffffffffffffffff168173ffffffffffffffffffffffffffffffffffffffff161461056f576040517f6697b23200000000000000000000000000000000000000000000000000000000815260040160405180910390fd5b6105798282610cb3565b505050565b600061058a6004610da5565b60006105966004610dbb565b90506105ac816001610b8c90919063ffffffff16565b156105ec576040517f08c379a00000000000000000000000000000000000000000000000000000000081526004016105e390611874565b60405180910390fd5b604051806080016040528082815260200186868080601f016020809104026020016040519081016040528093929190818152602001838380828437600081840152601f19601f82011690508083019250505050505050815260200161064f610cab565b73ffffffffffffffffffffffffffffffffffffffff16815260200184815250600360008381526020019081526020016000206000820151816000015560208201518160010190816106a09190611a6f565b5060408201518160020160006101000a81548173ffffffffffffffffffffffffffffffffffffffff021916908373ffffffffffffffffffffffffffffffffffffffff16021790555060608201518160030155905050610709816001610dc990919063ffffffff16565b50809150509392505050565b610729816001610b8c90919063ffffffff16565b610768576040517f08c379a000000000000000000000000000000000000000000000000000000000815260040161075f906117a8565b60405180910390fd5b61077c816001610de390919063ffffffff16565b50600360008281526020019081526020016000206000808201600090556001820160006107a9919061109e565b6002820160006101000a81549073ffffffffffffffffffffffffffffffffffffffff02191690556003820160009055505050565b600080600084815260200190815260200160002060000160008373ffffffffffffffffffffffffffffffffffffffff1673ffffffffffffffffffffffffffffffffffffffff16815260200190815260200160002060009054906101000a900460ff16905092915050565b6003602052806000526040600020600091509050806000015490806001018054610870906117f7565b80601f016020809104026020016040519081016040528092919081815260200182805461089c906117f7565b80156108e95780601f106108be576101008083540402835291602001916108e9565b820191906000526020600020905b8154815290600101906020018083116108cc57829003601f168201915b5050505050908060020160009054906101000a900473ffffffffffffffffffffffffffffffffffffffff16908060030154905084565b6000801b81565b606060006109346001610dfd565b905060008167ffffffffffffffff81111561095257610951611894565b5b60405190808252806020026020018201604052801561098b57816020015b610978611060565b8152602001906001900390816109705790505b50905060005b82811015610af75760006109af826001610e1290919063ffffffff16565b905060036000828152602001908152602001600020604051806080016040529081600082015481526020016001820180546109e9906117f7565b80601f0160208091040260200160405190810160405280929190818152602001828054610a15906117f7565b8015610a625780601f10610a3757610100808354040283529160200191610a62565b820191906000526020600020905b815481529060010190602001808311610a4557829003601f168201915b505050505081526020016002820160009054906101000a900473ffffffffffffffffffffffffffffffffffffffff1673ffffffffffffffffffffffffffffffffffffffff1673ffffffffffffffffffffffffffffffffffffffff168152602001600382015481525050838381518110610ade57610add611b41565b5b6020026020010181905250508080600101915050610991565b50809250505090565b610b09826104c2565b610b1281610ba6565b610b1c8383610cb3565b50505050565b60007f01ffc9a7000000000000000000000000000000000000000000000000000000007bffffffffffffffffffffffffffffffffffffffffffffffffffffffff1916827bffffffffffffffffffffffffffffffffffffffffffffffffffffffff1916149050919050565b6000610b9e836000018360001b610e2c565b905092915050565b610bb781610bb2610cab565b610e4f565b50565b6000610bc683836107dd565b610ca057600160008085815260200190815260200160002060000160008473ffffffffffffffffffffffffffffffffffffffff1673ffffffffffffffffffffffffffffffffffffffff16815260200190815260200160002060006101000a81548160ff021916908315150217905550610c3d610cab565b73ffffffffffffffffffffffffffffffffffffffff168273ffffffffffffffffffffffffffffffffffffffff16847f2f8788117e7eff1d82e926ec794901d17c78024a50270940304540a733656f0d60405160405180910390a460019050610ca5565b600090505b92915050565b600032905090565b6000610cbf83836107dd565b15610d9a57600080600085815260200190815260200160002060000160008473ffffffffffffffffffffffffffffffffffffffff1673ffffffffffffffffffffffffffffffffffffffff16815260200190815260200160002060006101000a81548160ff021916908315150217905550610d37610cab565b73ffffffffffffffffffffffffffffffffffffffff168273ffffffffffffffffffffffffffffffffffffffff16847ff6391f5c32d9c69d2a47ea670b442974b53935d1edc7fd64eb21e047a839171b60405160405180910390a460019050610d9f565b600090505b92915050565b6001816000016000828254019250508190555050565b600081600001549050919050565b6000610ddb836000018360001b610ea0565b905092915050565b6000610df5836000018360001b610f10565b905092915050565b6000610e0b82600001611024565b9050919050565b6000610e218360000183611035565b60001c905092915050565b600080836001016000848152602001908152602001600020541415905092915050565b610e5982826107dd565b610e9c5780826040517fe2517d3f000000000000000000000000000000000000000000000000000000008152600401610e93929190611b70565b60405180910390fd5b5050565b6000610eac8383610e2c565b610f05578260000182908060018154018082558091505060019003906000526020600020016000909190919091505582600001805490508360010160008481526020019081526020016000208190555060019050610f0a565b600090505b92915050565b60008083600101600084815260200190815260200160002054905060008114611018576000600182610f429190611bc8565b9050600060018660000180549050610f5a9190611bc8565b9050808214610fc9576000866000018281548110610f7b57610f7a611b41565b5b9060005260206000200154905080876000018481548110610f9f57610f9e611b41565b5b90600052602060002001819055508387600101600083815260200190815260200160002081905550505b85600001805480610fdd57610fdc611bfc565b5b60019003818190600052602060002001600090559055856001016000868152602001908152602001600020600090556001935050505061101e565b60009150505b92915050565b600081600001805490509050919050565b600082600001828154811061104d5761104c611b41565b5b9060005260206000200154905092915050565b60405180608001604052806000815260200160608152602001600073ffffffffffffffffffffffffffffffffffffffff168152602001600081525090565b5080546110aa906117f7565b6000825580601f106110bc57506110db565b601f0160209004906000526020600020908101906110da91906110de565b5b50565b5b808211156110f75760008160009055506001016110df565b5090565b6000819050919050565b61110e816110fb565b82525050565b60006020820190506111296000830184611105565b92915050565b600080fd5b600080fd5b60007fffffffff0000000000000000000000000000000000000000000000000000000082169050919050565b61116e81611139565b811461117957600080fd5b50565b60008135905061118b81611165565b92915050565b6000602082840312156111a7576111a661112f565b5b60006111b58482850161117c565b91505092915050565b60008115159050919050565b6111d3816111be565b82525050565b60006020820190506111ee60008301846111ca565b92915050565b6111fd816110fb565b811461120857600080fd5b50565b60008135905061121a816111f4565b92915050565b6000602082840312156112365761123561112f565b5b60006112448482850161120b565b91505092915050565b611256816110fb565b82525050565b600081519050919050565b600082825260208201905092915050565b60005b8381101561129657808201518184015260208101905061127b565b60008484015250505050565b6000601f19601f8301169050919050565b60006112be8261125c565b6112c88185611267565b93506112d8818560208601611278565b6112e1816112a2565b840191505092915050565b600073ffffffffffffffffffffffffffffffffffffffff82169050919050565b6000611317826112ec565b9050919050565b6113278161130c565b82525050565b6000608083016000830151611345600086018261124d565b506020830151848203602086015261135d82826112b3565b9150506040830151611372604086018261131e565b506060830151611385606086018261124d565b508091505092915050565b600060208201905081810360008301526113aa818461132d565b905092915050565b6000819050919050565b6113c5816113b2565b81146113d057600080fd5b50565b6000813590506113e2816113bc565b92915050565b6000602082840312156113fe576113fd61112f565b5b600061140c848285016113d3565b91505092915050565b61141e816113b2565b82525050565b60006020820190506114396000830184611415565b92915050565b6114488161130c565b811461145357600080fd5b50565b6000813590506114658161143f565b92915050565b600080604083850312156114825761148161112f565b5b6000611490858286016113d3565b92505060206114a185828601611456565b9150509250929050565b600080fd5b600080fd5b600080fd5b60008083601f8401126114d0576114cf6114ab565b5b8235905067ffffffffffffffff8111156114ed576114ec6114b0565b5b602083019150836001820283011115611509576115086114b5565b5b9250929050565b6000806000604084860312156115295761152861112f565b5b600084013567ffffffffffffffff81111561154757611546611134565b5b611553868287016114ba565b935093505060206115668682870161120b565b9150509250925092565b600082825260208201905092915050565b600061158c8261125c565b6115968185611570565b93506115a6818560208601611278565b6115af816112a2565b840191505092915050565b6115c38161130c565b82525050565b60006080820190506115de6000830187611105565b81810360208301526115f08186611581565b90506115ff60408301856115ba565b61160c6060830184611105565b95945050505050565b600081519050919050565b600082825260208201905092915050565b6000819050602082019050919050565b6000608083016000830151611659600086018261124d565b506020830151848203602086015261167182826112b3565b9150506040830151611686604086018261131e565b506060830151611699606086018261124d565b508091505092915050565b60006116b08383611641565b905092915050565b6000602082019050919050565b60006116d082611615565b6116da8185611620565b9350836020820285016116ec85611631565b8060005b85811015611728578484038952815161170985826116a4565b9450611714836116b8565b925060208a019950506001810190506116f0565b50829750879550505050505092915050565b6000602082019050818103600083015261175481846116c5565b905092915050565b7f4d6174657269616c20646f6573206e6f742065786973742e0000000000000000600082015250565b6000611792601883611570565b915061179d8261175c565b602082019050919050565b600060208201905081810360008301526117c181611785565b9050919050565b7f4e487b7100000000000000000000000000000000000000000000000000000000600052602260045260246000fd5b6000600282049050600182168061180f57607f821691505b602082108103611822576118216117c8565b5b50919050565b7f4d6174657269616c20616c726561647920726567697374657265642e00000000600082015250565b600061185e601c83611570565b915061186982611828565b602082019050919050565b6000602082019050818103600083015261188d81611851565b9050919050565b7f4e487b7100000000000000000000000000000000000000000000000000000000600052604160045260246000fd5b60008190508160005260206000209050919050565b60006020601f8301049050919050565b600082821b905092915050565b6000600883026119257fffffffffffffffffffffffffffffffffffffffffffffffffffffffffffffffff826118e8565b61192f86836118e8565b95508019841693508086168417925050509392505050565b6000819050919050565b600061196c611967611962846110fb565b611947565b6110fb565b9050919050565b6000819050919050565b61198683611951565b61199a61199282611973565b8484546118f5565b825550505050565b600090565b6119af6119a2565b6119ba81848461197d565b505050565b5b818110156119de576119d36000826119a7565b6001810190506119c0565b5050565b601f821115611a23576119f4816118c3565b6119fd846118d8565b81016020851015611a0c578190505b611a20611a18856118d8565b8301826119bf565b50505b505050565b600082821c905092915050565b6000611a4660001984600802611a28565b1980831691505092915050565b6000611a5f8383611a35565b9150826002028217905092915050565b611a788261125c565b67ffffffffffffffff811115611a9157611a90611894565b5b611a9b82546117f7565b611aa68282856119e2565b600060209050601f831160018114611ad95760008415611ac7578287015190505b611ad18582611a53565b865550611b39565b601f198416611ae7866118c3565b60005b82811015611b0f57848901518255600182019150602085019450602081019050611aea565b86831015611b2c5784890151611b28601f891682611a35565b8355505b6001600288020188555050505b505050505050565b7f4e487b7100000000000000000000000000000000000000000000000000000000600052603260045260246000fd5b6000604082019050611b8560008301856115ba565b611b926020830184611415565b9392505050565b7f4e487b7100000000000000000000000000000000000000000000000000000000600052601160045260246000fd5b6000611bd3826110fb565b9150611bde836110fb565b9250828203905081811115611bf657611bf5611b99565b5b92915050565b7f4e487b7100000000000000000000000000000000000000000000000000000000600052603160045260246000fdfea2646970667358221220f425eabcaa312ded529bb6521a5de50a2d17520e137d36ddf66536b6f647e31c64736f6c63430008180033",
  "linkReferences": {},
  "deployedLinkReferences": {}
}