{
  "_format": "hh-sol-artifact-1",
  "contractName": "Products",
  "sourceName": "contracts/Products.sol",
  "address": "0x2e7E82e2B2177DAD4a40c291b1ae05C3291e4001",
  "abi": [
    {
      "inputs": [],
      "name": "AccessControlBadConfirmation",
      "type": "error"
    },
    {
      "inputs": [
        {
          "internalType": "address",
          "name": "account",
          "type": "address"
        },
        {
          "internalType": "bytes32",
          "name": "neededRole",
          "type": "bytes32"
        }
      ],
      "name": "AccessControlUnauthorizedAccount",
      "type": "error"
    },
    {
      "anonymous": false,
      "inputs": [
        {
          "indexed": true,
          "internalType": "bytes32",
          "name": "role",
          "type": "bytes32"
        },
        {
          "indexed": true,
          "internalType": "bytes32",
          "name": "previousAdminRole",
          "type": "bytes32"
        },
        {
          "indexed": true,
          "internalType": "bytes32",
          "name": "newAdminRole",
          "type": "bytes32"
        }
      ],
      "name": "RoleAdminChanged",
      "type": "event"
    },
    {
      "anonymous": false,
      "inputs": [
        {
          "indexed": true,
          "internalType": "bytes32",
          "name": "role",
          "type": "bytes32"
        },
        {
          "indexed": true,
          "internalType": "address",
          "name": "account",
          "type": "address"
        },
        {
          "indexed": true,
          "internalType": "address",
          "name": "sender",
          "type": "address"
        }
      ],
      "name": "RoleGranted",
      "type": "event"
    },
    {
      "anonymous": false,
      "inputs": [
        {
          "indexed": true,
          "internalType": "bytes32",
          "name": "role",
          "type": "bytes32"
        },
        {
          "indexed": true,
          "internalType": "address",
          "name": "account",
          "type": "address"
        },
        {
          "indexed": true,
          "internalType": "address",
          "name": "sender",
          "type": "address"
        }
      ],
      "name": "RoleRevoked",
      "type": "event"
    },
    {
      "inputs": [],
      "name": "DEFAULT_ADMIN_ROLE",
      "outputs": [
        {
          "internalType": "bytes32",
          "name": "",
          "type": "bytes32"
        }
      ],
      "stateMutability": "view",
      "type": "function"
    },
    {
      "inputs": [
        {
          "internalType": "string",
          "name": "name",
          "type": "string"
        },
        {
          "internalType": "uint256",
          "name": "price",
          "type": "uint256"
        },
        {
          "internalType": "uint256",
          "name": "tax",
          "type": "uint256"
        },
        {
          "internalType": "uint256",
          "name": "quantity",
          "type": "uint256"
        }
      ],
      "name": "addProduct",
      "outputs": [
        {
          "internalType": "uint256",
          "name": "",
          "type": "uint256"
        }
      ],
      "stateMutability": "nonpayable",
      "type": "function"
    },
    {
      "inputs": [],
      "name": "getAllProducts",
      "outputs": [
        {
          "components": [
            {
              "internalType": "uint256",
              "name": "id",
              "type": "uint256"
            },
            {
              "internalType": "string",
              "name": "name",
              "type": "string"
            },
            {
              "internalType": "uint256",
              "name": "quantity",
              "type": "uint256"
            },
            {
              "internalType": "uint256",
              "name": "available",
              "type": "uint256"
            },
            {
              "internalType": "uint256",
              "name": "price",
              "type": "uint256"
            },
            {
              "internalType": "uint256",
              "name": "tax",
              "type": "uint256"
            },
            {
              "internalType": "address",
              "name": "owner",
              "type": "address"
            }
          ],
          "internalType": "struct Products.Product[]",
          "name": "",
          "type": "tuple[]"
        }
      ],
      "stateMutability": "view",
      "type": "function"
    },
    {
      "inputs": [
        {
          "internalType": "uint256",
          "name": "id",
          "type": "uint256"
        }
      ],
      "name": "getProduct",
      "outputs": [
        {
          "components": [
            {
              "internalType": "uint256",
              "name": "id",
              "type": "uint256"
            },
            {
              "internalType": "string",
              "name": "name",
              "type": "string"
            },
            {
              "internalType": "uint256",
              "name": "quantity",
              "type": "uint256"
            },
            {
              "internalType": "uint256",
              "name": "available",
              "type": "uint256"
            },
            {
              "internalType": "uint256",
              "name": "price",
              "type": "uint256"
            },
            {
              "internalType": "uint256",
              "name": "tax",
              "type": "uint256"
            },
            {
              "internalType": "address",
              "name": "owner",
              "type": "address"
            }
          ],
          "internalType": "struct Products.Product",
          "name": "",
          "type": "tuple"
        }
      ],
      "stateMutability": "view",
      "type": "function"
    },
    {
      "inputs": [
        {
          "internalType": "bytes32",
          "name": "role",
          "type": "bytes32"
        }
      ],
      "name": "getRoleAdmin",
      "outputs": [
        {
          "internalType": "bytes32",
          "name": "",
          "type": "bytes32"
        }
      ],
      "stateMutability": "view",
      "type": "function"
    },
    {
      "inputs": [
        {
          "internalType": "bytes32",
          "name": "role",
          "type": "bytes32"
        },
        {
          "internalType": "address",
          "name": "account",
          "type": "address"
        }
      ],
      "name": "grantRole",
      "outputs": [],
      "stateMutability": "nonpayable",
      "type": "function"
    },
    {
      "inputs": [
        {
          "internalType": "bytes32",
          "name": "role",
          "type": "bytes32"
        },
        {
          "internalType": "address",
          "name": "account",
          "type": "address"
        }
      ],
      "name": "hasRole",
      "outputs": [
        {
          "internalType": "bool",
          "name": "",
          "type": "bool"
        }
      ],
      "stateMutability": "view",
      "type": "function"
    },
    {
      "inputs": [],
      "name": "productIdCounter",
      "outputs": [
        {
          "internalType": "uint256",
          "name": "_value",
          "type": "uint256"
        }
      ],
      "stateMutability": "view",
      "type": "function"
    },
    {
      "inputs": [
        {
          "internalType": "uint256",
          "name": "",
          "type": "uint256"
        }
      ],
      "name": "products",
      "outputs": [
        {
          "internalType": "uint256",
          "name": "id",
          "type": "uint256"
        },
        {
          "internalType": "string",
          "name": "name",
          "type": "string"
        },
        {
          "internalType": "uint256",
          "name": "quantity",
          "type": "uint256"
        },
        {
          "internalType": "uint256",
          "name": "available",
          "type": "uint256"
        },
        {
          "internalType": "uint256",
          "name": "price",
          "type": "uint256"
        },
        {
          "internalType": "uint256",
          "name": "tax",
          "type": "uint256"
        },
        {
          "internalType": "address",
          "name": "owner",
          "type": "address"
        }
      ],
      "stateMutability": "view",
      "type": "function"
    },
    {
      "inputs": [
        {
          "internalType": "uint256",
          "name": "id",
          "type": "uint256"
        }
      ],
      "name": "removeProduct",
      "outputs": [],
      "stateMutability": "nonpayable",
      "type": "function"
    },
    {
      "inputs": [
        {
          "internalType": "bytes32",
          "name": "role",
          "type": "bytes32"
        },
        {
          "internalType": "address",
          "name": "callerConfirmation",
          "type": "address"
        }
      ],
      "name": "renounceRole",
      "outputs": [],
      "stateMutability": "nonpayable",
      "type": "function"
    },
    {
      "inputs": [
        {
          "internalType": "bytes32",
          "name": "role",
          "type": "bytes32"
        },
        {
          "internalType": "address",
          "name": "account",
          "type": "address"
        }
      ],
      "name": "revokeRole",
      "outputs": [],
      "stateMutability": "nonpayable",
      "type": "function"
    },
    {
      "inputs": [
        {
          "internalType": "bytes4",
          "name": "interfaceId",
          "type": "bytes4"
        }
      ],
      "name": "supportsInterface",
      "outputs": [
        {
          "internalType": "bool",
          "name": "",
          "type": "bool"
        }
      ],
      "stateMutability": "view",
      "type": "function"
    }
  ],
  "bytecode": "0x608060405234801561001057600080fd5b50611dd6806100206000396000f3fe608060405234801561001057600080fd5b50600436106100cf5760003560e01c806336568abe1161008c57806391d148541161006657806391d148541461022a578063a217fddf1461025a578063b9db15b414610278578063d547741f146102a8576100cf565b806336568abe146101bc5780635ee95cae146101d85780637acc0b20146101f4576100cf565b806301ffc9a7146100d457806302ee3a5214610104578063094455c414610122578063248a9ca3146101525780632f2ff15d14610182578063342ae8c61461019e575b600080fd5b6100ee60048036038101906100e9919061120e565b6102c4565b6040516100fb9190611256565b60405180910390f35b61010c61033e565b60405161011991906114b9565b60405180910390f35b61013c6004803603810190610137919061156c565b610536565b6040516101499190611603565b60405180910390f35b61016c60048036038101906101679190611654565b6106ff565b6040516101799190611690565b60405180910390f35b61019c600480360381019061019791906116d7565b61071e565b005b6101a6610740565b6040516101b39190611603565b60405180910390f35b6101d660048036038101906101d191906116d7565b61074c565b005b6101f260048036038101906101ed9190611717565b6107c7565b005b61020e60048036038101906102099190611717565b6108a7565b604051610221979695949392919061179d565b60405180910390f35b610244600480360381019061023f91906116d7565b610991565b6040516102519190611256565b60405180910390f35b6102626109fb565b60405161026f9190611690565b60405180910390f35b610292600480360381019061028d9190611717565b610a02565b60405161029f91906118af565b60405180910390f35b6102c260048036038101906102bd91906116d7565b610b9c565b005b60007f7965db0b000000000000000000000000000000000000000000000000000000007bffffffffffffffffffffffffffffffffffffffffffffffffffffffff1916827bffffffffffffffffffffffffffffffffffffffffffffffffffffffff19161480610337575061033682610bbe565b5b9050919050565b6060600061034c6001610c28565b905060008167ffffffffffffffff81111561036a576103696118d1565b5b6040519080825280602002602001820160405280156103a357816020015b6103906110fc565b8152602001906001900390816103885790505b50905060005b8281101561052d5760006103c7826001610c3d90919063ffffffff16565b9050600460008281526020019081526020016000206040518060e0016040529081600082015481526020016001820180546104019061192f565b80601f016020809104026020016040519081016040528092919081815260200182805461042d9061192f565b801561047a5780601f1061044f5761010080835404028352916020019161047a565b820191906000526020600020905b81548152906001019060200180831161045d57829003601f168201915b50505050508152602001600282015481526020016003820154815260200160048201548152602001600582015481526020016006820160009054906101000a900473ffffffffffffffffffffffffffffffffffffffff1673ffffffffffffffffffffffffffffffffffffffff1673ffffffffffffffffffffffffffffffffffffffff168152505083838151811061051457610513611960565b5b60200260200101819052505080806001019150506103a9565b50809250505090565b60006105426003610c57565b600061054e6003610c6d565b9050610564816001610c7b90919063ffffffff16565b156105a4576040517f08c379a000000000000000000000000000000000000000000000000000000000815260040161059b906119db565b60405180910390fd5b6040518060e0016040528082815260200188888080601f016020809104026020016040519081016040528093929190818152602001838380828437600081840152601f19601f82011690508083019250505050505050815260200184815260200184815260200186815260200185815260200161061f610c95565b73ffffffffffffffffffffffffffffffffffffffff168152506004600083815260200190815260200160002060008201518160000155602082015181600101908161066a9190611ba7565b5060408201518160020155606082015181600301556080820151816004015560a0820151816005015560c08201518160060160006101000a81548173ffffffffffffffffffffffffffffffffffffffff021916908373ffffffffffffffffffffffffffffffffffffffff1602179055509050506106f1816001610c9d90919063ffffffff16565b508091505095945050505050565b6000806000838152602001908152602001600020600101549050919050565b610727826106ff565b61073081610cb7565b61073a8383610ccb565b50505050565b60038060000154905081565b610754610c95565b73ffffffffffffffffffffffffffffffffffffffff168173ffffffffffffffffffffffffffffffffffffffff16146107b8576040517f6697b23200000000000000000000000000000000000000000000000000000000815260040160405180910390fd5b6107c28282610dbc565b505050565b6107db816001610c7b90919063ffffffff16565b61081a576040517f08c379a000000000000000000000000000000000000000000000000000000000815260040161081190611cc5565b60405180910390fd5b61082e816001610eae90919063ffffffff16565b506004600082815260200190815260200160002060008082016000905560018201600061085b919061114f565b60028201600090556003820160009055600482016000905560058201600090556006820160006101000a81549073ffffffffffffffffffffffffffffffffffffffff0219169055505050565b60046020528060005260406000206000915090508060000154908060010180546108d09061192f565b80601f01602080910402602001604051908101604052809291908181526020018280546108fc9061192f565b80156109495780601f1061091e57610100808354040283529160200191610949565b820191906000526020600020905b81548152906001019060200180831161092c57829003601f168201915b5050505050908060020154908060030154908060040154908060050154908060060160009054906101000a900473ffffffffffffffffffffffffffffffffffffffff16905087565b600080600084815260200190815260200160002060000160008373ffffffffffffffffffffffffffffffffffffffff1673ffffffffffffffffffffffffffffffffffffffff16815260200190815260200160002060009054906101000a900460ff16905092915050565b6000801b81565b610a0a6110fc565b610a1e826001610c7b90919063ffffffff16565b610a5d576040517f08c379a0000000000000000000000000000000000000000000000000000000008152600401610a5490611cc5565b60405180910390fd5b600460008381526020019081526020016000206040518060e001604052908160008201548152602001600182018054610a959061192f565b80601f0160208091040260200160405190810160405280929190818152602001828054610ac19061192f565b8015610b0e5780601f10610ae357610100808354040283529160200191610b0e565b820191906000526020600020905b815481529060010190602001808311610af157829003601f168201915b50505050508152602001600282015481526020016003820154815260200160048201548152602001600582015481526020016006820160009054906101000a900473ffffffffffffffffffffffffffffffffffffffff1673ffffffffffffffffffffffffffffffffffffffff1673ffffffffffffffffffffffffffffffffffffffff16815250509050919050565b610ba5826106ff565b610bae81610cb7565b610bb88383610dbc565b50505050565b60007f01ffc9a7000000000000000000000000000000000000000000000000000000007bffffffffffffffffffffffffffffffffffffffffffffffffffffffff1916827bffffffffffffffffffffffffffffffffffffffffffffffffffffffff1916149050919050565b6000610c3682600001610ec8565b9050919050565b6000610c4c8360000183610ed9565b60001c905092915050565b6001816000016000828254019250508190555050565b600081600001549050919050565b6000610c8d836000018360001b610f04565b905092915050565b600032905090565b6000610caf836000018360001b610f27565b905092915050565b610cc881610cc3610c95565b610f97565b50565b6000610cd78383610991565b610db157600160008085815260200190815260200160002060000160008473ffffffffffffffffffffffffffffffffffffffff1673ffffffffffffffffffffffffffffffffffffffff16815260200190815260200160002060006101000a81548160ff021916908315150217905550610d4e610c95565b73ffffffffffffffffffffffffffffffffffffffff168273ffffffffffffffffffffffffffffffffffffffff16847f2f8788117e7eff1d82e926ec794901d17c78024a50270940304540a733656f0d60405160405180910390a460019050610db6565b600090505b92915050565b6000610dc88383610991565b15610ea357600080600085815260200190815260200160002060000160008473ffffffffffffffffffffffffffffffffffffffff1673ffffffffffffffffffffffffffffffffffffffff16815260200190815260200160002060006101000a81548160ff021916908315150217905550610e40610c95565b73ffffffffffffffffffffffffffffffffffffffff168273ffffffffffffffffffffffffffffffffffffffff16847ff6391f5c32d9c69d2a47ea670b442974b53935d1edc7fd64eb21e047a839171b60405160405180910390a460019050610ea8565b600090505b92915050565b6000610ec0836000018360001b610fe8565b905092915050565b600081600001805490509050919050565b6000826000018281548110610ef157610ef0611960565b5b9060005260206000200154905092915050565b600080836001016000848152602001908152602001600020541415905092915050565b6000610f338383610f04565b610f8c578260000182908060018154018082558091505060019003906000526020600020016000909190919091505582600001805490508360010160008481526020019081526020016000208190555060019050610f91565b600090505b92915050565b610fa18282610991565b610fe45780826040517fe2517d3f000000000000000000000000000000000000000000000000000000008152600401610fdb929190611ce5565b60405180910390fd5b5050565b600080836001016000848152602001908152602001600020549050600081146110f057600060018261101a9190611d3d565b90506000600186600001805490506110329190611d3d565b90508082146110a157600086600001828154811061105357611052611960565b5b906000526020600020015490508087600001848154811061107757611076611960565b5b90600052602060002001819055508387600101600083815260200190815260200160002081905550505b856000018054806110b5576110b4611d71565b5b6001900381819060005260206000200160009055905585600101600086815260200190815260200160002060009055600193505050506110f6565b60009150505b92915050565b6040518060e00160405280600081526020016060815260200160008152602001600081526020016000815260200160008152602001600073ffffffffffffffffffffffffffffffffffffffff1681525090565b50805461115b9061192f565b6000825580601f1061116d575061118c565b601f01602090049060005260206000209081019061118b919061118f565b5b50565b5b808211156111a8576000816000905550600101611190565b5090565b600080fd5b600080fd5b60007fffffffff0000000000000000000000000000000000000000000000000000000082169050919050565b6111eb816111b6565b81146111f657600080fd5b50565b600081359050611208816111e2565b92915050565b600060208284031215611224576112236111ac565b5b6000611232848285016111f9565b91505092915050565b60008115159050919050565b6112508161123b565b82525050565b600060208201905061126b6000830184611247565b92915050565b600081519050919050565b600082825260208201905092915050565b6000819050602082019050919050565b6000819050919050565b6112b08161129d565b82525050565b600081519050919050565b600082825260208201905092915050565b60005b838110156112f05780820151818401526020810190506112d5565b60008484015250505050565b6000601f19601f8301169050919050565b6000611318826112b6565b61132281856112c1565b93506113328185602086016112d2565b61133b816112fc565b840191505092915050565b600073ffffffffffffffffffffffffffffffffffffffff82169050919050565b600061137182611346565b9050919050565b61138181611366565b82525050565b600060e08301600083015161139f60008601826112a7565b50602083015184820360208601526113b7828261130d565b91505060408301516113cc60408601826112a7565b5060608301516113df60608601826112a7565b5060808301516113f260808601826112a7565b5060a083015161140560a08601826112a7565b5060c083015161141860c0860182611378565b508091505092915050565b600061142f8383611387565b905092915050565b6000602082019050919050565b600061144f82611271565b611459818561127c565b93508360208202850161146b8561128d565b8060005b858110156114a757848403895281516114888582611423565b945061149383611437565b925060208a0199505060018101905061146f565b50829750879550505050505092915050565b600060208201905081810360008301526114d38184611444565b905092915050565b600080fd5b600080fd5b600080fd5b60008083601f840112611500576114ff6114db565b5b8235905067ffffffffffffffff81111561151d5761151c6114e0565b5b602083019150836001820283011115611539576115386114e5565b5b9250929050565b6115498161129d565b811461155457600080fd5b50565b60008135905061156681611540565b92915050565b600080600080600060808688031215611588576115876111ac565b5b600086013567ffffffffffffffff8111156115a6576115a56111b1565b5b6115b2888289016114ea565b955095505060206115c588828901611557565b93505060406115d688828901611557565b92505060606115e788828901611557565b9150509295509295909350565b6115fd8161129d565b82525050565b600060208201905061161860008301846115f4565b92915050565b6000819050919050565b6116318161161e565b811461163c57600080fd5b50565b60008135905061164e81611628565b92915050565b60006020828403121561166a576116696111ac565b5b60006116788482850161163f565b91505092915050565b61168a8161161e565b82525050565b60006020820190506116a56000830184611681565b92915050565b6116b481611366565b81146116bf57600080fd5b50565b6000813590506116d1816116ab565b92915050565b600080604083850312156116ee576116ed6111ac565b5b60006116fc8582860161163f565b925050602061170d858286016116c2565b9150509250929050565b60006020828403121561172d5761172c6111ac565b5b600061173b84828501611557565b91505092915050565b600082825260208201905092915050565b6000611760826112b6565b61176a8185611744565b935061177a8185602086016112d2565b611783816112fc565b840191505092915050565b61179781611366565b82525050565b600060e0820190506117b2600083018a6115f4565b81810360208301526117c48189611755565b90506117d360408301886115f4565b6117e060608301876115f4565b6117ed60808301866115f4565b6117fa60a08301856115f4565b61180760c083018461178e565b98975050505050505050565b600060e08301600083015161182b60008601826112a7565b5060208301518482036020860152611843828261130d565b915050604083015161185860408601826112a7565b50606083015161186b60608601826112a7565b50608083015161187e60808601826112a7565b5060a083015161189160a08601826112a7565b5060c08301516118a460c0860182611378565b508091505092915050565b600060208201905081810360008301526118c98184611813565b905092915050565b7f4e487b7100000000000000000000000000000000000000000000000000000000600052604160045260246000fd5b7f4e487b7100000000000000000000000000000000000000000000000000000000600052602260045260246000fd5b6000600282049050600182168061194757607f821691505b60208210810361195a57611959611900565b5b50919050565b7f4e487b7100000000000000000000000000000000000000000000000000000000600052603260045260246000fd5b7f50726f6475637420616c726561647920726567697374657265642e0000000000600082015250565b60006119c5601b83611744565b91506119d08261198f565b602082019050919050565b600060208201905081810360008301526119f4816119b8565b9050919050565b60008190508160005260206000209050919050565b60006020601f8301049050919050565b600082821b905092915050565b600060088302611a5d7fffffffffffffffffffffffffffffffffffffffffffffffffffffffffffffffff82611a20565b611a678683611a20565b95508019841693508086168417925050509392505050565b6000819050919050565b6000611aa4611a9f611a9a8461129d565b611a7f565b61129d565b9050919050565b6000819050919050565b611abe83611a89565b611ad2611aca82611aab565b848454611a2d565b825550505050565b600090565b611ae7611ada565b611af2818484611ab5565b505050565b5b81811015611b1657611b0b600082611adf565b600181019050611af8565b5050565b601f821115611b5b57611b2c816119fb565b611b3584611a10565b81016020851015611b44578190505b611b58611b5085611a10565b830182611af7565b50505b505050565b600082821c905092915050565b6000611b7e60001984600802611b60565b1980831691505092915050565b6000611b978383611b6d565b9150826002028217905092915050565b611bb0826112b6565b67ffffffffffffffff811115611bc957611bc86118d1565b5b611bd3825461192f565b611bde828285611b1a565b600060209050601f831160018114611c115760008415611bff578287015190505b611c098582611b8b565b865550611c71565b601f198416611c1f866119fb565b60005b82811015611c4757848901518255600182019150602085019450602081019050611c22565b86831015611c645784890151611c60601f891682611b6d565b8355505b6001600288020188555050505b505050505050565b7f4d6174657269616c20646f6573206e6f742065786973742e0000000000000000600082015250565b6000611caf601883611744565b9150611cba82611c79565b602082019050919050565b60006020820190508181036000830152611cde81611ca2565b9050919050565b6000604082019050611cfa600083018561178e565b611d076020830184611681565b9392505050565b7f4e487b7100000000000000000000000000000000000000000000000000000000600052601160045260246000fd5b6000611d488261129d565b9150611d538361129d565b9250828203905081811115611d6b57611d6a611d0e565b5b92915050565b7f4e487b7100000000000000000000000000000000000000000000000000000000600052603160045260246000fdfea26469706673582212207a72496c255b0bf4079142891d9e460d71a18f089be47448f888581909a6b15264736f6c63430008180033",
  "linkReferences": {},
  "deployedLinkReferences": {}
}