{
  "_format": "hh-sol-artifact-1",
  "contractName": "RawMaterials",
  "sourceName": "contracts/RawMaterials.sol",
  "address": "0x6f757F3ab0765ffbCc0EAf9220241815135B5c86",
  "abi": [
    {
      "inputs": [],
      "name": "AccessControlBadConfirmation",
      "type": "error"
    },
    {
      "inputs": [
        {
          "internalType": "address",
          "name": "account",
          "type": "address"
        },
        {
          "internalType": "bytes32",
          "name": "neededRole",
          "type": "bytes32"
        }
      ],
      "name": "AccessControlUnauthorizedAccount",
      "type": "error"
    },
    {
      "anonymous": false,
      "inputs": [
        {
          "indexed": true,
          "internalType": "bytes32",
          "name": "role",
          "type": "bytes32"
        },
        {
          "indexed": true,
          "internalType": "bytes32",
          "name": "previousAdminRole",
          "type": "bytes32"
        },
        {
          "indexed": true,
          "internalType": "bytes32",
          "name": "newAdminRole",
          "type": "bytes32"
        }
      ],
      "name": "RoleAdminChanged",
      "type": "event"
    },
    {
      "anonymous": false,
      "inputs": [
        {
          "indexed": true,
          "internalType": "bytes32",
          "name": "role",
          "type": "bytes32"
        },
        {
          "indexed": true,
          "internalType": "address",
          "name": "account",
          "type": "address"
        },
        {
          "indexed": true,
          "internalType": "address",
          "name": "sender",
          "type": "address"
        }
      ],
      "name": "RoleGranted",
      "type": "event"
    },
    {
      "anonymous": false,
      "inputs": [
        {
          "indexed": true,
          "internalType": "bytes32",
          "name": "role",
          "type": "bytes32"
        },
        {
          "indexed": true,
          "internalType": "address",
          "name": "account",
          "type": "address"
        },
        {
          "indexed": true,
          "internalType": "address",
          "name": "sender",
          "type": "address"
        }
      ],
      "name": "RoleRevoked",
      "type": "event"
    },
    {
      "inputs": [],
      "name": "DEFAULT_ADMIN_ROLE",
      "outputs": [
        {
          "internalType": "bytes32",
          "name": "",
          "type": "bytes32"
        }
      ],
      "stateMutability": "view",
      "type": "function"
    },
    {
      "inputs": [
        {
          "internalType": "string",
          "name": "name",
          "type": "string"
        },
        {
          "internalType": "uint256",
          "name": "price",
          "type": "uint256"
        },
        {
          "internalType": "uint256",
          "name": "tax",
          "type": "uint256"
        },
        {
          "internalType": "uint256",
          "name": "quantity",
          "type": "uint256"
        }
      ],
      "name": "addRawMaterial",
      "outputs": [
        {
          "internalType": "uint256",
          "name": "",
          "type": "uint256"
        }
      ],
      "stateMutability": "nonpayable",
      "type": "function"
    },
    {
      "inputs": [],
      "name": "getAllRawMaterials",
      "outputs": [
        {
          "components": [
            {
              "internalType": "uint256",
              "name": "id",
              "type": "uint256"
            },
            {
              "internalType": "string",
              "name": "name",
              "type": "string"
            },
            {
              "internalType": "uint256",
              "name": "quantity",
              "type": "uint256"
            },
            {
              "internalType": "uint256",
              "name": "available",
              "type": "uint256"
            },
            {
              "internalType": "uint256",
              "name": "price",
              "type": "uint256"
            },
            {
              "internalType": "uint256",
              "name": "tax",
              "type": "uint256"
            },
            {
              "internalType": "address",
              "name": "owner",
              "type": "address"
            }
          ],
          "internalType": "struct RawMaterials.RawMaterial[]",
          "name": "",
          "type": "tuple[]"
        }
      ],
      "stateMutability": "view",
      "type": "function"
    },
    {
      "inputs": [
        {
          "internalType": "uint256",
          "name": "id",
          "type": "uint256"
        }
      ],
      "name": "getRawMaterial",
      "outputs": [
        {
          "components": [
            {
              "internalType": "uint256",
              "name": "id",
              "type": "uint256"
            },
            {
              "internalType": "string",
              "name": "name",
              "type": "string"
            },
            {
              "internalType": "uint256",
              "name": "quantity",
              "type": "uint256"
            },
            {
              "internalType": "uint256",
              "name": "available",
              "type": "uint256"
            },
            {
              "internalType": "uint256",
              "name": "price",
              "type": "uint256"
            },
            {
              "internalType": "uint256",
              "name": "tax",
              "type": "uint256"
            },
            {
              "internalType": "address",
              "name": "owner",
              "type": "address"
            }
          ],
          "internalType": "struct RawMaterials.RawMaterial",
          "name": "",
          "type": "tuple"
        }
      ],
      "stateMutability": "view",
      "type": "function"
    },
    {
      "inputs": [
        {
          "internalType": "bytes32",
          "name": "role",
          "type": "bytes32"
        }
      ],
      "name": "getRoleAdmin",
      "outputs": [
        {
          "internalType": "bytes32",
          "name": "",
          "type": "bytes32"
        }
      ],
      "stateMutability": "view",
      "type": "function"
    },
    {
      "inputs": [
        {
          "internalType": "bytes32",
          "name": "role",
          "type": "bytes32"
        },
        {
          "internalType": "address",
          "name": "account",
          "type": "address"
        }
      ],
      "name": "grantRole",
      "outputs": [],
      "stateMutability": "nonpayable",
      "type": "function"
    },
    {
      "inputs": [
        {
          "internalType": "bytes32",
          "name": "role",
          "type": "bytes32"
        },
        {
          "internalType": "address",
          "name": "account",
          "type": "address"
        }
      ],
      "name": "hasRole",
      "outputs": [
        {
          "internalType": "bool",
          "name": "",
          "type": "bool"
        }
      ],
      "stateMutability": "view",
      "type": "function"
    },
    {
      "inputs": [],
      "name": "materialIdCounter",
      "outputs": [
        {
          "internalType": "uint256",
          "name": "_value",
          "type": "uint256"
        }
      ],
      "stateMutability": "view",
      "type": "function"
    },
    {
      "inputs": [
        {
          "internalType": "uint256",
          "name": "",
          "type": "uint256"
        }
      ],
      "name": "materials",
      "outputs": [
        {
          "internalType": "uint256",
          "name": "id",
          "type": "uint256"
        },
        {
          "internalType": "string",
          "name": "name",
          "type": "string"
        },
        {
          "internalType": "uint256",
          "name": "quantity",
          "type": "uint256"
        },
        {
          "internalType": "uint256",
          "name": "available",
          "type": "uint256"
        },
        {
          "internalType": "uint256",
          "name": "price",
          "type": "uint256"
        },
        {
          "internalType": "uint256",
          "name": "tax",
          "type": "uint256"
        },
        {
          "internalType": "address",
          "name": "owner",
          "type": "address"
        }
      ],
      "stateMutability": "view",
      "type": "function"
    },
    {
      "inputs": [
        {
          "internalType": "uint256",
          "name": "id",
          "type": "uint256"
        }
      ],
      "name": "removeRawMaterial",
      "outputs": [],
      "stateMutability": "nonpayable",
      "type": "function"
    },
    {
      "inputs": [
        {
          "internalType": "bytes32",
          "name": "role",
          "type": "bytes32"
        },
        {
          "internalType": "address",
          "name": "callerConfirmation",
          "type": "address"
        }
      ],
      "name": "renounceRole",
      "outputs": [],
      "stateMutability": "nonpayable",
      "type": "function"
    },
    {
      "inputs": [
        {
          "internalType": "bytes32",
          "name": "role",
          "type": "bytes32"
        },
        {
          "internalType": "address",
          "name": "account",
          "type": "address"
        }
      ],
      "name": "revokeRole",
      "outputs": [],
      "stateMutability": "nonpayable",
      "type": "function"
    },
    {
      "inputs": [
        {
          "internalType": "bytes4",
          "name": "interfaceId",
          "type": "bytes4"
        }
      ],
      "name": "supportsInterface",
      "outputs": [
        {
          "internalType": "bool",
          "name": "",
          "type": "bool"
        }
      ],
      "stateMutability": "view",
      "type": "function"
    }
  ],
  "bytecode": "0x608060405234801561001057600080fd5b50611dd6806100206000396000f3fe608060405234801561001057600080fd5b50600436106100cf5760003560e01c80637a8e85261161008c578063c8012aa311610066578063c8012aa31461023c578063d547741f1461026c578063eedb334814610288578063fac0992d146102a6576100cf565b80637a8e8526146101b857806391d14854146101ee578063a217fddf1461021e576100cf565b806301ffc9a7146100d4578063248a9ca3146101045780632f2ff15d1461013457806336568abe146101505780635aff3e821461016c5780635cb93e8414610188575b600080fd5b6100ee60048036038101906100e9919061120e565b6102c4565b6040516100fb9190611256565b60405180910390f35b61011e600480360381019061011991906112a7565b61033e565b60405161012b91906112e3565b60405180910390f35b61014e6004803603810190610149919061135c565b61035d565b005b61016a6004803603810190610165919061135c565b61037f565b005b610186600480360381019061018191906113d2565b6103fa565b005b6101a2600480360381019061019d91906113d2565b6104da565b6040516101af9190611549565b60405180910390f35b6101d260048036038101906101cd91906113d2565b610674565b6040516101e597969594939291906115d3565b60405180910390f35b6102086004803603810190610203919061135c565b61075e565b6040516102159190611256565b60405180910390f35b6102266107c8565b60405161023391906112e3565b60405180910390f35b610256600480360381019061025191906116ae565b6107cf565b6040516102639190611736565b60405180910390f35b6102866004803603810190610281919061135c565b610998565b005b6102906109ba565b60405161029d9190611736565b60405180910390f35b6102ae6109c6565b6040516102bb91906118af565b60405180910390f35b60007f7965db0b000000000000000000000000000000000000000000000000000000007bffffffffffffffffffffffffffffffffffffffffffffffffffffffff1916827bffffffffffffffffffffffffffffffffffffffffffffffffffffffff19161480610337575061033682610bbe565b5b9050919050565b6000806000838152602001908152602001600020600101549050919050565b6103668261033e565b61036f81610c28565b6103798383610c3c565b50505050565b610387610d2d565b73ffffffffffffffffffffffffffffffffffffffff168173ffffffffffffffffffffffffffffffffffffffff16146103eb576040517f6697b23200000000000000000000000000000000000000000000000000000000815260040160405180910390fd5b6103f58282610d35565b505050565b61040e816001610e2790919063ffffffff16565b61044d576040517f08c379a00000000000000000000000000000000000000000000000000000000081526004016104449061191d565b60405180910390fd5b610461816001610e4190919063ffffffff16565b506003600082815260200190815260200160002060008082016000905560018201600061048e91906110fc565b60028201600090556003820160009055600482016000905560058201600090556006820160006101000a81549073ffffffffffffffffffffffffffffffffffffffff0219169055505050565b6104e261113c565b6104f6826001610e2790919063ffffffff16565b610535576040517f08c379a000000000000000000000000000000000000000000000000000000000815260040161052c9061191d565b60405180910390fd5b600360008381526020019081526020016000206040518060e00160405290816000820154815260200160018201805461056d9061196c565b80601f01602080910402602001604051908101604052809291908181526020018280546105999061196c565b80156105e65780601f106105bb576101008083540402835291602001916105e6565b820191906000526020600020905b8154815290600101906020018083116105c957829003601f168201915b50505050508152602001600282015481526020016003820154815260200160048201548152602001600582015481526020016006820160009054906101000a900473ffffffffffffffffffffffffffffffffffffffff1673ffffffffffffffffffffffffffffffffffffffff1673ffffffffffffffffffffffffffffffffffffffff16815250509050919050565b600360205280600052604060002060009150905080600001549080600101805461069d9061196c565b80601f01602080910402602001604051908101604052809291908181526020018280546106c99061196c565b80156107165780601f106106eb57610100808354040283529160200191610716565b820191906000526020600020905b8154815290600101906020018083116106f957829003601f168201915b5050505050908060020154908060030154908060040154908060050154908060060160009054906101000a900473ffffffffffffffffffffffffffffffffffffffff16905087565b600080600084815260200190815260200160002060000160008373ffffffffffffffffffffffffffffffffffffffff1673ffffffffffffffffffffffffffffffffffffffff16815260200190815260200160002060009054906101000a900460ff16905092915050565b6000801b81565b60006107db6004610e5b565b60006107e76004610e71565b90506107fd816001610e2790919063ffffffff16565b1561083d576040517f08c379a0000000000000000000000000000000000000000000000000000000008152600401610834906119e9565b60405180910390fd5b6040518060e0016040528082815260200188888080601f016020809104026020016040519081016040528093929190818152602001838380828437600081840152601f19601f8201169050808301925050505050505081526020018481526020018481526020018681526020018581526020016108b8610d2d565b73ffffffffffffffffffffffffffffffffffffffff16815250600360008381526020019081526020016000206000820151816000015560208201518160010190816109039190611be4565b5060408201518160020155606082015181600301556080820151816004015560a0820151816005015560c08201518160060160006101000a81548173ffffffffffffffffffffffffffffffffffffffff021916908373ffffffffffffffffffffffffffffffffffffffff16021790555090505061098a816001610e7f90919063ffffffff16565b508091505095945050505050565b6109a18261033e565b6109aa81610c28565b6109b48383610d35565b50505050565b60048060000154905081565b606060006109d46001610e99565b905060008167ffffffffffffffff8111156109f2576109f1611a09565b5b604051908082528060200260200182016040528015610a2b57816020015b610a1861113c565b815260200190600190039081610a105790505b50905060005b82811015610bb5576000610a4f826001610eae90919063ffffffff16565b9050600360008281526020019081526020016000206040518060e001604052908160008201548152602001600182018054610a899061196c565b80601f0160208091040260200160405190810160405280929190818152602001828054610ab59061196c565b8015610b025780601f10610ad757610100808354040283529160200191610b02565b820191906000526020600020905b815481529060010190602001808311610ae557829003601f168201915b50505050508152602001600282015481526020016003820154815260200160048201548152602001600582015481526020016006820160009054906101000a900473ffffffffffffffffffffffffffffffffffffffff1673ffffffffffffffffffffffffffffffffffffffff1673ffffffffffffffffffffffffffffffffffffffff1681525050838381518110610b9c57610b9b611cb6565b5b6020026020010181905250508080600101915050610a31565b50809250505090565b60007f01ffc9a7000000000000000000000000000000000000000000000000000000007bffffffffffffffffffffffffffffffffffffffffffffffffffffffff1916827bffffffffffffffffffffffffffffffffffffffffffffffffffffffff1916149050919050565b610c3981610c34610d2d565b610ec8565b50565b6000610c48838361075e565b610d2257600160008085815260200190815260200160002060000160008473ffffffffffffffffffffffffffffffffffffffff1673ffffffffffffffffffffffffffffffffffffffff16815260200190815260200160002060006101000a81548160ff021916908315150217905550610cbf610d2d565b73ffffffffffffffffffffffffffffffffffffffff168273ffffffffffffffffffffffffffffffffffffffff16847f2f8788117e7eff1d82e926ec794901d17c78024a50270940304540a733656f0d60405160405180910390a460019050610d27565b600090505b92915050565b600032905090565b6000610d41838361075e565b15610e1c57600080600085815260200190815260200160002060000160008473ffffffffffffffffffffffffffffffffffffffff1673ffffffffffffffffffffffffffffffffffffffff16815260200190815260200160002060006101000a81548160ff021916908315150217905550610db9610d2d565b73ffffffffffffffffffffffffffffffffffffffff168273ffffffffffffffffffffffffffffffffffffffff16847ff6391f5c32d9c69d2a47ea670b442974b53935d1edc7fd64eb21e047a839171b60405160405180910390a460019050610e21565b600090505b92915050565b6000610e39836000018360001b610f19565b905092915050565b6000610e53836000018360001b610f3c565b905092915050565b6001816000016000828254019250508190555050565b600081600001549050919050565b6000610e91836000018360001b611050565b905092915050565b6000610ea7826000016110c0565b9050919050565b6000610ebd83600001836110d1565b60001c905092915050565b610ed2828261075e565b610f155780826040517fe2517d3f000000000000000000000000000000000000000000000000000000008152600401610f0c929190611ce5565b60405180910390fd5b5050565b600080836001016000848152602001908152602001600020541415905092915050565b60008083600101600084815260200190815260200160002054905060008114611044576000600182610f6e9190611d3d565b9050600060018660000180549050610f869190611d3d565b9050808214610ff5576000866000018281548110610fa757610fa6611cb6565b5b9060005260206000200154905080876000018481548110610fcb57610fca611cb6565b5b90600052602060002001819055508387600101600083815260200190815260200160002081905550505b8560000180548061100957611008611d71565b5b60019003818190600052602060002001600090559055856001016000868152602001908152602001600020600090556001935050505061104a565b60009150505b92915050565b600061105c8383610f19565b6110b55782600001829080600181540180825580915050600190039060005260206000200160009091909190915055826000018054905083600101600084815260200190815260200160002081905550600190506110ba565b600090505b92915050565b600081600001805490509050919050565b60008260000182815481106110e9576110e8611cb6565b5b9060005260206000200154905092915050565b5080546111089061196c565b6000825580601f1061111a5750611139565b601f016020900490600052602060002090810190611138919061118f565b5b50565b6040518060e00160405280600081526020016060815260200160008152602001600081526020016000815260200160008152602001600073ffffffffffffffffffffffffffffffffffffffff1681525090565b5b808211156111a8576000816000905550600101611190565b5090565b600080fd5b600080fd5b60007fffffffff0000000000000000000000000000000000000000000000000000000082169050919050565b6111eb816111b6565b81146111f657600080fd5b50565b600081359050611208816111e2565b92915050565b600060208284031215611224576112236111ac565b5b6000611232848285016111f9565b91505092915050565b60008115159050919050565b6112508161123b565b82525050565b600060208201905061126b6000830184611247565b92915050565b6000819050919050565b61128481611271565b811461128f57600080fd5b50565b6000813590506112a18161127b565b92915050565b6000602082840312156112bd576112bc6111ac565b5b60006112cb84828501611292565b91505092915050565b6112dd81611271565b82525050565b60006020820190506112f860008301846112d4565b92915050565b600073ffffffffffffffffffffffffffffffffffffffff82169050919050565b6000611329826112fe565b9050919050565b6113398161131e565b811461134457600080fd5b50565b60008135905061135681611330565b92915050565b60008060408385031215611373576113726111ac565b5b600061138185828601611292565b925050602061139285828601611347565b9150509250929050565b6000819050919050565b6113af8161139c565b81146113ba57600080fd5b50565b6000813590506113cc816113a6565b92915050565b6000602082840312156113e8576113e76111ac565b5b60006113f6848285016113bd565b91505092915050565b6114088161139c565b82525050565b600081519050919050565b600082825260208201905092915050565b60005b8381101561144857808201518184015260208101905061142d565b60008484015250505050565b6000601f19601f8301169050919050565b60006114708261140e565b61147a8185611419565b935061148a81856020860161142a565b61149381611454565b840191505092915050565b6114a78161131e565b82525050565b600060e0830160008301516114c560008601826113ff565b50602083015184820360208601526114dd8282611465565b91505060408301516114f260408601826113ff565b50606083015161150560608601826113ff565b50608083015161151860808601826113ff565b5060a083015161152b60a08601826113ff565b5060c083015161153e60c086018261149e565b508091505092915050565b6000602082019050818103600083015261156381846114ad565b905092915050565b6115748161139c565b82525050565b600082825260208201905092915050565b60006115968261140e565b6115a0818561157a565b93506115b081856020860161142a565b6115b981611454565b840191505092915050565b6115cd8161131e565b82525050565b600060e0820190506115e8600083018a61156b565b81810360208301526115fa818961158b565b9050611609604083018861156b565b611616606083018761156b565b611623608083018661156b565b61163060a083018561156b565b61163d60c08301846115c4565b98975050505050505050565b600080fd5b600080fd5b600080fd5b60008083601f84011261166e5761166d611649565b5b8235905067ffffffffffffffff81111561168b5761168a61164e565b5b6020830191508360018202830111156116a7576116a6611653565b5b9250929050565b6000806000806000608086880312156116ca576116c96111ac565b5b600086013567ffffffffffffffff8111156116e8576116e76111b1565b5b6116f488828901611658565b95509550506020611707888289016113bd565b9350506040611718888289016113bd565b9250506060611729888289016113bd565b9150509295509295909350565b600060208201905061174b600083018461156b565b92915050565b600081519050919050565b600082825260208201905092915050565b6000819050602082019050919050565b600060e08301600083015161179560008601826113ff565b50602083015184820360208601526117ad8282611465565b91505060408301516117c260408601826113ff565b5060608301516117d560608601826113ff565b5060808301516117e860808601826113ff565b5060a08301516117fb60a08601826113ff565b5060c083015161180e60c086018261149e565b508091505092915050565b6000611825838361177d565b905092915050565b6000602082019050919050565b600061184582611751565b61184f818561175c565b9350836020820285016118618561176d565b8060005b8581101561189d578484038952815161187e8582611819565b94506118898361182d565b925060208a01995050600181019050611865565b50829750879550505050505092915050565b600060208201905081810360008301526118c9818461183a565b905092915050565b7f4d6174657269616c20646f6573206e6f742065786973742e0000000000000000600082015250565b600061190760188361157a565b9150611912826118d1565b602082019050919050565b60006020820190508181036000830152611936816118fa565b9050919050565b7f4e487b7100000000000000000000000000000000000000000000000000000000600052602260045260246000fd5b6000600282049050600182168061198457607f821691505b6020821081036119975761199661193d565b5b50919050565b7f4d6174657269616c20616c726561647920726567697374657265642e00000000600082015250565b60006119d3601c8361157a565b91506119de8261199d565b602082019050919050565b60006020820190508181036000830152611a02816119c6565b9050919050565b7f4e487b7100000000000000000000000000000000000000000000000000000000600052604160045260246000fd5b60008190508160005260206000209050919050565b60006020601f8301049050919050565b600082821b905092915050565b600060088302611a9a7fffffffffffffffffffffffffffffffffffffffffffffffffffffffffffffffff82611a5d565b611aa48683611a5d565b95508019841693508086168417925050509392505050565b6000819050919050565b6000611ae1611adc611ad78461139c565b611abc565b61139c565b9050919050565b6000819050919050565b611afb83611ac6565b611b0f611b0782611ae8565b848454611a6a565b825550505050565b600090565b611b24611b17565b611b2f818484611af2565b505050565b5b81811015611b5357611b48600082611b1c565b600181019050611b35565b5050565b601f821115611b9857611b6981611a38565b611b7284611a4d565b81016020851015611b81578190505b611b95611b8d85611a4d565b830182611b34565b50505b505050565b600082821c905092915050565b6000611bbb60001984600802611b9d565b1980831691505092915050565b6000611bd48383611baa565b9150826002028217905092915050565b611bed8261140e565b67ffffffffffffffff811115611c0657611c05611a09565b5b611c10825461196c565b611c1b828285611b57565b600060209050601f831160018114611c4e5760008415611c3c578287015190505b611c468582611bc8565b865550611cae565b601f198416611c5c86611a38565b60005b82811015611c8457848901518255600182019150602085019450602081019050611c5f565b86831015611ca15784890151611c9d601f891682611baa565b8355505b6001600288020188555050505b505050505050565b7f4e487b7100000000000000000000000000000000000000000000000000000000600052603260045260246000fd5b6000604082019050611cfa60008301856115c4565b611d0760208301846112d4565b9392505050565b7f4e487b7100000000000000000000000000000000000000000000000000000000600052601160045260246000fd5b6000611d488261139c565b9150611d538361139c565b9250828203905081811115611d6b57611d6a611d0e565b5b92915050565b7f4e487b7100000000000000000000000000000000000000000000000000000000600052603160045260246000fdfea2646970667358221220cbf0d332407389ef82c26ee8c668d431d185970cd8f225fc7f38377dab8fdcf864736f6c63430008180033",
  "linkReferences": {},
  "deployedLinkReferences": {}
}