{
  "_format": "hh-sol-artifact-1",
  "contractName": "Services",
  "sourceName": "contracts/Services.sol",
  "address": "0x0",
  "abi": [
    {
      "inputs": [],
      "name": "AccessControlBadConfirmation",
      "type": "error"
    },
    {
      "inputs": [
        {
          "internalType": "address",
          "name": "account",
          "type": "address"
        },
        {
          "internalType": "bytes32",
          "name": "neededRole",
          "type": "bytes32"
        }
      ],
      "name": "AccessControlUnauthorizedAccount",
      "type": "error"
    },
    {
      "anonymous": false,
      "inputs": [
        {
          "indexed": true,
          "internalType": "bytes32",
          "name": "role",
          "type": "bytes32"
        },
        {
          "indexed": true,
          "internalType": "bytes32",
          "name": "previousAdminRole",
          "type": "bytes32"
        },
        {
          "indexed": true,
          "internalType": "bytes32",
          "name": "newAdminRole",
          "type": "bytes32"
        }
      ],
      "name": "RoleAdminChanged",
      "type": "event"
    },
    {
      "anonymous": false,
      "inputs": [
        {
          "indexed": true,
          "internalType": "bytes32",
          "name": "role",
          "type": "bytes32"
        },
        {
          "indexed": true,
          "internalType": "address",
          "name": "account",
          "type": "address"
        },
        {
          "indexed": true,
          "internalType": "address",
          "name": "sender",
          "type": "address"
        }
      ],
      "name": "RoleGranted",
      "type": "event"
    },
    {
      "anonymous": false,
      "inputs": [
        {
          "indexed": true,
          "internalType": "bytes32",
          "name": "role",
          "type": "bytes32"
        },
        {
          "indexed": true,
          "internalType": "address",
          "name": "account",
          "type": "address"
        },
        {
          "indexed": true,
          "internalType": "address",
          "name": "sender",
          "type": "address"
        }
      ],
      "name": "RoleRevoked",
      "type": "event"
    },
    {
      "inputs": [],
      "name": "DEFAULT_ADMIN_ROLE",
      "outputs": [
        {
          "internalType": "bytes32",
          "name": "",
          "type": "bytes32"
        }
      ],
      "stateMutability": "view",
      "type": "function"
    },
    {
      "inputs": [
        {
          "internalType": "string",
          "name": "name",
          "type": "string"
        },
        {
          "internalType": "uint256",
          "name": "price",
          "type": "uint256"
        },
        {
          "internalType": "uint256",
          "name": "tax",
          "type": "uint256"
        },
        {
          "internalType": "uint256",
          "name": "quantity",
          "type": "uint256"
        },
        {
          "internalType": "uint256",
          "name": "volume",
          "type": "uint256"
        }
      ],
      "name": "addService",
      "outputs": [
        {
          "internalType": "uint256",
          "name": "",
          "type": "uint256"
        }
      ],
      "stateMutability": "nonpayable",
      "type": "function"
    },
    {
      "inputs": [],
      "name": "getAllServices",
      "outputs": [
        {
          "components": [
            {
              "internalType": "uint256",
              "name": "id",
              "type": "uint256"
            },
            {
              "internalType": "string",
              "name": "name",
              "type": "string"
            },
            {
              "internalType": "uint256",
              "name": "price",
              "type": "uint256"
            },
            {
              "internalType": "uint256",
              "name": "tax",
              "type": "uint256"
            },
            {
              "internalType": "uint256",
              "name": "quantity",
              "type": "uint256"
            },
            {
              "internalType": "uint256",
              "name": "volume",
              "type": "uint256"
            },
            {
              "internalType": "address",
              "name": "owner",
              "type": "address"
            }
          ],
          "internalType": "struct Services.Service[]",
          "name": "",
          "type": "tuple[]"
        }
      ],
      "stateMutability": "view",
      "type": "function"
    },
    {
      "inputs": [
        {
          "internalType": "bytes32",
          "name": "role",
          "type": "bytes32"
        }
      ],
      "name": "getRoleAdmin",
      "outputs": [
        {
          "internalType": "bytes32",
          "name": "",
          "type": "bytes32"
        }
      ],
      "stateMutability": "view",
      "type": "function"
    },
    {
      "inputs": [
        {
          "internalType": "uint256",
          "name": "id",
          "type": "uint256"
        }
      ],
      "name": "getService",
      "outputs": [
        {
          "components": [
            {
              "internalType": "uint256",
              "name": "id",
              "type": "uint256"
            },
            {
              "internalType": "string",
              "name": "name",
              "type": "string"
            },
            {
              "internalType": "uint256",
              "name": "price",
              "type": "uint256"
            },
            {
              "internalType": "uint256",
              "name": "tax",
              "type": "uint256"
            },
            {
              "internalType": "uint256",
              "name": "quantity",
              "type": "uint256"
            },
            {
              "internalType": "uint256",
              "name": "volume",
              "type": "uint256"
            },
            {
              "internalType": "address",
              "name": "owner",
              "type": "address"
            }
          ],
          "internalType": "struct Services.Service",
          "name": "",
          "type": "tuple"
        }
      ],
      "stateMutability": "view",
      "type": "function"
    },
    {
      "inputs": [
        {
          "internalType": "bytes32",
          "name": "role",
          "type": "bytes32"
        },
        {
          "internalType": "address",
          "name": "account",
          "type": "address"
        }
      ],
      "name": "grantRole",
      "outputs": [],
      "stateMutability": "nonpayable",
      "type": "function"
    },
    {
      "inputs": [
        {
          "internalType": "bytes32",
          "name": "role",
          "type": "bytes32"
        },
        {
          "internalType": "address",
          "name": "account",
          "type": "address"
        }
      ],
      "name": "hasRole",
      "outputs": [
        {
          "internalType": "bool",
          "name": "",
          "type": "bool"
        }
      ],
      "stateMutability": "view",
      "type": "function"
    },
    {
      "inputs": [
        {
          "internalType": "uint256",
          "name": "id",
          "type": "uint256"
        }
      ],
      "name": "removeService",
      "outputs": [],
      "stateMutability": "nonpayable",
      "type": "function"
    },
    {
      "inputs": [
        {
          "internalType": "bytes32",
          "name": "role",
          "type": "bytes32"
        },
        {
          "internalType": "address",
          "name": "callerConfirmation",
          "type": "address"
        }
      ],
      "name": "renounceRole",
      "outputs": [],
      "stateMutability": "nonpayable",
      "type": "function"
    },
    {
      "inputs": [
        {
          "internalType": "bytes32",
          "name": "role",
          "type": "bytes32"
        },
        {
          "internalType": "address",
          "name": "account",
          "type": "address"
        }
      ],
      "name": "revokeRole",
      "outputs": [],
      "stateMutability": "nonpayable",
      "type": "function"
    },
    {
      "inputs": [],
      "name": "serviceIdCounter",
      "outputs": [
        {
          "internalType": "uint256",
          "name": "_value",
          "type": "uint256"
        }
      ],
      "stateMutability": "view",
      "type": "function"
    },
    {
      "inputs": [
        {
          "internalType": "uint256",
          "name": "",
          "type": "uint256"
        }
      ],
      "name": "services",
      "outputs": [
        {
          "internalType": "uint256",
          "name": "id",
          "type": "uint256"
        },
        {
          "internalType": "string",
          "name": "name",
          "type": "string"
        },
        {
          "internalType": "uint256",
          "name": "price",
          "type": "uint256"
        },
        {
          "internalType": "uint256",
          "name": "tax",
          "type": "uint256"
        },
        {
          "internalType": "uint256",
          "name": "quantity",
          "type": "uint256"
        },
        {
          "internalType": "uint256",
          "name": "volume",
          "type": "uint256"
        },
        {
          "internalType": "address",
          "name": "owner",
          "type": "address"
        }
      ],
      "stateMutability": "view",
      "type": "function"
    },
    {
      "inputs": [
        {
          "internalType": "bytes4",
          "name": "interfaceId",
          "type": "bytes4"
        }
      ],
      "name": "supportsInterface",
      "outputs": [
        {
          "internalType": "bool",
          "name": "",
          "type": "bool"
        }
      ],
      "stateMutability": "view",
      "type": "function"
    }
  ],
  "bytecode": "0x608060405234801561001057600080fd5b50611de9806100206000396000f3fe608060405234801561001057600080fd5b50600436106100cf5760003560e01c806366a4d9101161008c578063a217fddf11610066578063a217fddf14610224578063c22c4f4314610242578063d547741f14610278578063ef0e239b14610294576100cf565b806366a4d910146101ba57806391d14854146101d85780639b66b13914610208576100cf565b806301ffc9a7146100d457806302223c201461010457806321fe0f3014610134578063248a9ca3146101525780632f2ff15d1461018257806336568abe1461019e575b600080fd5b6100ee60048036038101906100e9919061120f565b6102c4565b6040516100fb9190611257565b60405180910390f35b61011e6004803603810190610119919061130d565b61033e565b60405161012b91906113b6565b60405180910390f35b61013c610508565b604051610149919061160f565b60405180910390f35b61016c60048036038101906101679190611667565b610700565b60405161017991906116a3565b60405180910390f35b61019c600480360381019061019791906116ea565b61071f565b005b6101b860048036038101906101b391906116ea565b610741565b005b6101c26107bc565b6040516101cf91906113b6565b60405180910390f35b6101f260048036038101906101ed91906116ea565b6107c8565b6040516101ff9190611257565b60405180910390f35b610222600480360381019061021d919061172a565b610832565b005b61022c610912565b60405161023991906116a3565b60405180910390f35b61025c6004803603810190610257919061172a565b610919565b60405161026f97969594939291906117b0565b60405180910390f35b610292600480360381019061028d91906116ea565b610a03565b005b6102ae60048036038101906102a9919061172a565b610a25565b6040516102bb91906118c2565b60405180910390f35b60007f7965db0b000000000000000000000000000000000000000000000000000000007bffffffffffffffffffffffffffffffffffffffffffffffffffffffff1916827bffffffffffffffffffffffffffffffffffffffffffffffffffffffff19161480610337575061033682610bbf565b5b9050919050565b600061034a6004610c29565b60006103566004610c3f565b905061036c816001610c4d90919063ffffffff16565b156103ac576040517f08c379a00000000000000000000000000000000000000000000000000000000081526004016103a390611930565b60405180910390fd5b6040518060e0016040528082815260200189898080601f016020809104026020016040519081016040528093929190818152602001838380828437600081840152601f19601f820116905080830192505050505050508152602001878152602001868152602001858152602001848152602001610427610c67565b73ffffffffffffffffffffffffffffffffffffffff16815250600360008381526020019081526020016000206000820151816000015560208201518160010190816104729190611b8b565b5060408201518160020155606082015181600301556080820151816004015560a0820151816005015560c08201518160060160006101000a81548173ffffffffffffffffffffffffffffffffffffffff021916908373ffffffffffffffffffffffffffffffffffffffff1602179055509050506104f9816001610c6f90919063ffffffff16565b50809150509695505050505050565b606060006105166001610c89565b905060008167ffffffffffffffff81111561053457610533611950565b5b60405190808252806020026020018201604052801561056d57816020015b61055a6110fd565b8152602001906001900390816105525790505b50905060005b828110156106f7576000610591826001610c9e90919063ffffffff16565b9050600360008281526020019081526020016000206040518060e0016040529081600082015481526020016001820180546105cb906119ae565b80601f01602080910402602001604051908101604052809291908181526020018280546105f7906119ae565b80156106445780601f1061061957610100808354040283529160200191610644565b820191906000526020600020905b81548152906001019060200180831161062757829003601f168201915b50505050508152602001600282015481526020016003820154815260200160048201548152602001600582015481526020016006820160009054906101000a900473ffffffffffffffffffffffffffffffffffffffff1673ffffffffffffffffffffffffffffffffffffffff1673ffffffffffffffffffffffffffffffffffffffff16815250508383815181106106de576106dd611c5d565b5b6020026020010181905250508080600101915050610573565b50809250505090565b6000806000838152602001908152602001600020600101549050919050565b61072882610700565b61073181610cb8565b61073b8383610ccc565b50505050565b610749610c67565b73ffffffffffffffffffffffffffffffffffffffff168173ffffffffffffffffffffffffffffffffffffffff16146107ad576040517f6697b23200000000000000000000000000000000000000000000000000000000815260040160405180910390fd5b6107b78282610dbd565b505050565b60048060000154905081565b600080600084815260200190815260200160002060000160008373ffffffffffffffffffffffffffffffffffffffff1673ffffffffffffffffffffffffffffffffffffffff16815260200190815260200160002060009054906101000a900460ff16905092915050565b610846816001610c4d90919063ffffffff16565b610885576040517f08c379a000000000000000000000000000000000000000000000000000000000815260040161087c90611cd8565b60405180910390fd5b610899816001610eaf90919063ffffffff16565b50600360008281526020019081526020016000206000808201600090556001820160006108c69190611150565b60028201600090556003820160009055600482016000905560058201600090556006820160006101000a81549073ffffffffffffffffffffffffffffffffffffffff0219169055505050565b6000801b81565b6003602052806000526040600020600091509050806000015490806001018054610942906119ae565b80601f016020809104026020016040519081016040528092919081815260200182805461096e906119ae565b80156109bb5780601f10610990576101008083540402835291602001916109bb565b820191906000526020600020905b81548152906001019060200180831161099e57829003601f168201915b5050505050908060020154908060030154908060040154908060050154908060060160009054906101000a900473ffffffffffffffffffffffffffffffffffffffff16905087565b610a0c82610700565b610a1581610cb8565b610a1f8383610dbd565b50505050565b610a2d6110fd565b610a41826001610c4d90919063ffffffff16565b610a80576040517f08c379a0000000000000000000000000000000000000000000000000000000008152600401610a7790611cd8565b60405180910390fd5b600360008381526020019081526020016000206040518060e001604052908160008201548152602001600182018054610ab8906119ae565b80601f0160208091040260200160405190810160405280929190818152602001828054610ae4906119ae565b8015610b315780601f10610b0657610100808354040283529160200191610b31565b820191906000526020600020905b815481529060010190602001808311610b1457829003601f168201915b50505050508152602001600282015481526020016003820154815260200160048201548152602001600582015481526020016006820160009054906101000a900473ffffffffffffffffffffffffffffffffffffffff1673ffffffffffffffffffffffffffffffffffffffff1673ffffffffffffffffffffffffffffffffffffffff16815250509050919050565b60007f01ffc9a7000000000000000000000000000000000000000000000000000000007bffffffffffffffffffffffffffffffffffffffffffffffffffffffff1916827bffffffffffffffffffffffffffffffffffffffffffffffffffffffff1916149050919050565b6001816000016000828254019250508190555050565b600081600001549050919050565b6000610c5f836000018360001b610ec9565b905092915050565b600032905090565b6000610c81836000018360001b610eec565b905092915050565b6000610c9782600001610f5c565b9050919050565b6000610cad8360000183610f6d565b60001c905092915050565b610cc981610cc4610c67565b610f98565b50565b6000610cd883836107c8565b610db257600160008085815260200190815260200160002060000160008473ffffffffffffffffffffffffffffffffffffffff1673ffffffffffffffffffffffffffffffffffffffff16815260200190815260200160002060006101000a81548160ff021916908315150217905550610d4f610c67565b73ffffffffffffffffffffffffffffffffffffffff168273ffffffffffffffffffffffffffffffffffffffff16847f2f8788117e7eff1d82e926ec794901d17c78024a50270940304540a733656f0d60405160405180910390a460019050610db7565b600090505b92915050565b6000610dc983836107c8565b15610ea457600080600085815260200190815260200160002060000160008473ffffffffffffffffffffffffffffffffffffffff1673ffffffffffffffffffffffffffffffffffffffff16815260200190815260200160002060006101000a81548160ff021916908315150217905550610e41610c67565b73ffffffffffffffffffffffffffffffffffffffff168273ffffffffffffffffffffffffffffffffffffffff16847ff6391f5c32d9c69d2a47ea670b442974b53935d1edc7fd64eb21e047a839171b60405160405180910390a460019050610ea9565b600090505b92915050565b6000610ec1836000018360001b610fe9565b905092915050565b600080836001016000848152602001908152602001600020541415905092915050565b6000610ef88383610ec9565b610f51578260000182908060018154018082558091505060019003906000526020600020016000909190919091505582600001805490508360010160008481526020019081526020016000208190555060019050610f56565b600090505b92915050565b600081600001805490509050919050565b6000826000018281548110610f8557610f84611c5d565b5b9060005260206000200154905092915050565b610fa282826107c8565b610fe55780826040517fe2517d3f000000000000000000000000000000000000000000000000000000008152600401610fdc929190611cf8565b60405180910390fd5b5050565b600080836001016000848152602001908152602001600020549050600081146110f157600060018261101b9190611d50565b90506000600186600001805490506110339190611d50565b90508082146110a257600086600001828154811061105457611053611c5d565b5b906000526020600020015490508087600001848154811061107857611077611c5d565b5b90600052602060002001819055508387600101600083815260200190815260200160002081905550505b856000018054806110b6576110b5611d84565b5b6001900381819060005260206000200160009055905585600101600086815260200190815260200160002060009055600193505050506110f7565b60009150505b92915050565b6040518060e00160405280600081526020016060815260200160008152602001600081526020016000815260200160008152602001600073ffffffffffffffffffffffffffffffffffffffff1681525090565b50805461115c906119ae565b6000825580601f1061116e575061118d565b601f01602090049060005260206000209081019061118c9190611190565b5b50565b5b808211156111a9576000816000905550600101611191565b5090565b600080fd5b600080fd5b60007fffffffff0000000000000000000000000000000000000000000000000000000082169050919050565b6111ec816111b7565b81146111f757600080fd5b50565b600081359050611209816111e3565b92915050565b600060208284031215611225576112246111ad565b5b6000611233848285016111fa565b91505092915050565b60008115159050919050565b6112518161123c565b82525050565b600060208201905061126c6000830184611248565b92915050565b600080fd5b600080fd5b600080fd5b60008083601f84011261129757611296611272565b5b8235905067ffffffffffffffff8111156112b4576112b3611277565b5b6020830191508360018202830111156112d0576112cf61127c565b5b9250929050565b6000819050919050565b6112ea816112d7565b81146112f557600080fd5b50565b600081359050611307816112e1565b92915050565b60008060008060008060a0878903121561132a576113296111ad565b5b600087013567ffffffffffffffff811115611348576113476111b2565b5b61135489828a01611281565b9650965050602061136789828a016112f8565b945050604061137889828a016112f8565b935050606061138989828a016112f8565b925050608061139a89828a016112f8565b9150509295509295509295565b6113b0816112d7565b82525050565b60006020820190506113cb60008301846113a7565b92915050565b600081519050919050565b600082825260208201905092915050565b6000819050602082019050919050565b611406816112d7565b82525050565b600081519050919050565b600082825260208201905092915050565b60005b8381101561144657808201518184015260208101905061142b565b60008484015250505050565b6000601f19601f8301169050919050565b600061146e8261140c565b6114788185611417565b9350611488818560208601611428565b61149181611452565b840191505092915050565b600073ffffffffffffffffffffffffffffffffffffffff82169050919050565b60006114c78261149c565b9050919050565b6114d7816114bc565b82525050565b600060e0830160008301516114f560008601826113fd565b506020830151848203602086015261150d8282611463565b915050604083015161152260408601826113fd565b50606083015161153560608601826113fd565b50608083015161154860808601826113fd565b5060a083015161155b60a08601826113fd565b5060c083015161156e60c08601826114ce565b508091505092915050565b600061158583836114dd565b905092915050565b6000602082019050919050565b60006115a5826113d1565b6115af81856113dc565b9350836020820285016115c1856113ed565b8060005b858110156115fd57848403895281516115de8582611579565b94506115e98361158d565b925060208a019950506001810190506115c5565b50829750879550505050505092915050565b60006020820190508181036000830152611629818461159a565b905092915050565b6000819050919050565b61164481611631565b811461164f57600080fd5b50565b6000813590506116618161163b565b92915050565b60006020828403121561167d5761167c6111ad565b5b600061168b84828501611652565b91505092915050565b61169d81611631565b82525050565b60006020820190506116b86000830184611694565b92915050565b6116c7816114bc565b81146116d257600080fd5b50565b6000813590506116e4816116be565b92915050565b60008060408385031215611701576117006111ad565b5b600061170f85828601611652565b9250506020611720858286016116d5565b9150509250929050565b6000602082840312156117405761173f6111ad565b5b600061174e848285016112f8565b91505092915050565b600082825260208201905092915050565b60006117738261140c565b61177d8185611757565b935061178d818560208601611428565b61179681611452565b840191505092915050565b6117aa816114bc565b82525050565b600060e0820190506117c5600083018a6113a7565b81810360208301526117d78189611768565b90506117e660408301886113a7565b6117f360608301876113a7565b61180060808301866113a7565b61180d60a08301856113a7565b61181a60c08301846117a1565b98975050505050505050565b600060e08301600083015161183e60008601826113fd565b50602083015184820360208601526118568282611463565b915050604083015161186b60408601826113fd565b50606083015161187e60608601826113fd565b50608083015161189160808601826113fd565b5060a08301516118a460a08601826113fd565b5060c08301516118b760c08601826114ce565b508091505092915050565b600060208201905081810360008301526118dc8184611826565b905092915050565b7f5365727669636520616c726561647920726567697374657265642e0000000000600082015250565b600061191a601b83611757565b9150611925826118e4565b602082019050919050565b600060208201905081810360008301526119498161190d565b9050919050565b7f4e487b7100000000000000000000000000000000000000000000000000000000600052604160045260246000fd5b7f4e487b7100000000000000000000000000000000000000000000000000000000600052602260045260246000fd5b600060028204905060018216806119c657607f821691505b6020821081036119d9576119d861197f565b5b50919050565b60008190508160005260206000209050919050565b60006020601f8301049050919050565b600082821b905092915050565b600060088302611a417fffffffffffffffffffffffffffffffffffffffffffffffffffffffffffffffff82611a04565b611a4b8683611a04565b95508019841693508086168417925050509392505050565b6000819050919050565b6000611a88611a83611a7e846112d7565b611a63565b6112d7565b9050919050565b6000819050919050565b611aa283611a6d565b611ab6611aae82611a8f565b848454611a11565b825550505050565b600090565b611acb611abe565b611ad6818484611a99565b505050565b5b81811015611afa57611aef600082611ac3565b600181019050611adc565b5050565b601f821115611b3f57611b10816119df565b611b19846119f4565b81016020851015611b28578190505b611b3c611b34856119f4565b830182611adb565b50505b505050565b600082821c905092915050565b6000611b6260001984600802611b44565b1980831691505092915050565b6000611b7b8383611b51565b9150826002028217905092915050565b611b948261140c565b67ffffffffffffffff811115611bad57611bac611950565b5b611bb782546119ae565b611bc2828285611afe565b600060209050601f831160018114611bf55760008415611be3578287015190505b611bed8582611b6f565b865550611c55565b601f198416611c03866119df565b60005b82811015611c2b57848901518255600182019150602085019450602081019050611c06565b86831015611c485784890151611c44601f891682611b51565b8355505b6001600288020188555050505b505050505050565b7f4e487b7100000000000000000000000000000000000000000000000000000000600052603260045260246000fd5b7f4d6174657269616c20646f6573206e6f742065786973742e0000000000000000600082015250565b6000611cc2601883611757565b9150611ccd82611c8c565b602082019050919050565b60006020820190508181036000830152611cf181611cb5565b9050919050565b6000604082019050611d0d60008301856117a1565b611d1a6020830184611694565b9392505050565b7f4e487b7100000000000000000000000000000000000000000000000000000000600052601160045260246000fd5b6000611d5b826112d7565b9150611d66836112d7565b9250828203905081811115611d7e57611d7d611d21565b5b92915050565b7f4e487b7100000000000000000000000000000000000000000000000000000000600052603160045260246000fdfea2646970667358221220eaa8b4a96bb39f8f6b0826f5a7f87453fa6efc68e9dc7244d9aec38c8e6037e764736f6c63430008180033",
  "linkReferences": {},
  "deployedLinkReferences": {}
}