{
  "_format": "hh-sol-artifact-1",
  "contractName": "SupplyChain",
  "sourceName": "contracts/SupplyChain.sol",
  "address": "0x0",
  "abi": [
    {
      "inputs": [
        {
          "internalType": "contract Logistics",
          "name": "_logistics",
          "type": "address"
        },
        {
          "internalType": "contract RawMaterials",
          "name": "_rawMaterials",
          "type": "address"
        },
        {
          "internalType": "contract Services",
          "name": "_services",
          "type": "address"
        }
      ],
      "stateMutability": "nonpayable",
      "type": "constructor"
    },
    {
      "inputs": [
        {
          "internalType": "uint256",
          "name": "supplyChainId",
          "type": "uint256"
        },
        {
          "internalType": "uint256",
          "name": "stepId",
          "type": "uint256"
        }
      ],
      "name": "_confirmReceiver",
      "outputs": [],
      "stateMutability": "nonpayable",
      "type": "function"
    },
    {
      "inputs": [
        {
          "internalType": "uint256",
          "name": "supplyChainId",
          "type": "uint256"
        },
        {
          "internalType": "uint256",
          "name": "stepId",
          "type": "uint256"
        }
      ],
      "name": "_confirmSender",
      "outputs": [],
      "stateMutability": "nonpayable",
      "type": "function"
    },
    {
      "inputs": [
        {
          "internalType": "uint256",
          "name": "supplyChainId",
          "type": "uint256"
        },
        {
          "internalType": "uint256",
          "name": "stepId",
          "type": "uint256"
        }
      ],
      "name": "_confirmTransporterDelivered",
      "outputs": [],
      "stateMutability": "nonpayable",
      "type": "function"
    },
    {
      "inputs": [
        {
          "internalType": "uint256",
          "name": "supplyChainId",
          "type": "uint256"
        },
        {
          "internalType": "uint256",
          "name": "stepId",
          "type": "uint256"
        }
      ],
      "name": "_confirmTransporterReceived",
      "outputs": [],
      "stateMutability": "nonpayable",
      "type": "function"
    },
    {
      "inputs": [
        {
          "components": [
            {
              "internalType": "uint256",
              "name": "stepId",
              "type": "uint256"
            },
            {
              "internalType": "enum SupplyChain.StepType",
              "name": "stepType",
              "type": "uint8"
            },
            {
              "internalType": "uint256",
              "name": "itemId",
              "type": "uint256"
            },
            {
              "internalType": "uint256",
              "name": "logisticsId",
              "type": "uint256"
            },
            {
              "internalType": "uint256",
              "name": "quantity",
              "type": "uint256"
            },
            {
              "internalType": "uint256",
              "name": "logisticsCost",
              "type": "uint256"
            },
            {
              "internalType": "uint256",
              "name": "itemCost",
              "type": "uint256"
            },
            {
              "internalType": "uint256",
              "name": "totalCost",
              "type": "uint256"
            },
            {
              "internalType": "address",
              "name": "sender",
              "type": "address"
            },
            {
              "internalType": "address",
              "name": "transporter",
              "type": "address"
            },
            {
              "internalType": "address",
              "name": "receiver",
              "type": "address"
            },
            {
              "internalType": "bool",
              "name": "senderConfirmed",
              "type": "bool"
            },
            {
              "internalType": "bool",
              "name": "transporterReceived",
              "type": "bool"
            },
            {
              "internalType": "bool",
              "name": "transporterDelivered",
              "type": "bool"
            },
            {
              "internalType": "bool",
              "name": "receiverConfirmed",
              "type": "bool"
            }
          ],
          "internalType": "struct SupplyChain.Step",
          "name": "step",
          "type": "tuple"
        }
      ],
      "name": "_isStepCompleted",
      "outputs": [
        {
          "internalType": "bool",
          "name": "",
          "type": "bool"
        }
      ],
      "stateMutability": "pure",
      "type": "function"
    },
    {
      "inputs": [
        {
          "internalType": "uint256",
          "name": "chainId",
          "type": "uint256"
        }
      ],
      "name": "_setFundChain",
      "outputs": [],
      "stateMutability": "nonpayable",
      "type": "function"
    },
    {
      "inputs": [],
      "name": "chainIdCounter",
      "outputs": [
        {
          "internalType": "uint256",
          "name": "_value",
          "type": "uint256"
        }
      ],
      "stateMutability": "view",
      "type": "function"
    },
    {
      "inputs": [
        {
          "internalType": "string",
          "name": "name",
          "type": "string"
        },
        {
          "internalType": "string",
          "name": "description",
          "type": "string"
        },
        {
          "components": [
            {
              "internalType": "enum SupplyChain.StepType",
              "name": "stepType",
              "type": "uint8"
            },
            {
              "internalType": "uint256",
              "name": "itemId",
              "type": "uint256"
            },
            {
              "internalType": "uint256",
              "name": "logisticsId",
              "type": "uint256"
            },
            {
              "internalType": "uint256",
              "name": "quantity",
              "type": "uint256"
            },
            {
              "internalType": "address",
              "name": "receiver",
              "type": "address"
            }
          ],
          "internalType": "struct SupplyChain.StepInput[]",
          "name": "_steps",
          "type": "tuple[]"
        }
      ],
      "name": "createSupplyChain",
      "outputs": [
        {
          "internalType": "uint256",
          "name": "",
          "type": "uint256"
        }
      ],
      "stateMutability": "nonpayable",
      "type": "function"
    },
    {
      "inputs": [
        {
          "internalType": "uint256",
          "name": "id",
          "type": "uint256"
        }
      ],
      "name": "getSupplyChain",
      "outputs": [
        {
          "components": [
            {
              "internalType": "uint256",
              "name": "id",
              "type": "uint256"
            },
            {
              "internalType": "string",
              "name": "name",
              "type": "string"
            },
            {
              "internalType": "string",
              "name": "description",
              "type": "string"
            },
            {
              "components": [
                {
                  "internalType": "uint256",
                  "name": "stepId",
                  "type": "uint256"
                },
                {
                  "internalType": "enum SupplyChain.StepType",
                  "name": "stepType",
                  "type": "uint8"
                },
                {
                  "internalType": "uint256",
                  "name": "itemId",
                  "type": "uint256"
                },
                {
                  "internalType": "uint256",
                  "name": "logisticsId",
                  "type": "uint256"
                },
                {
                  "internalType": "uint256",
                  "name": "quantity",
                  "type": "uint256"
                },
                {
                  "internalType": "uint256",
                  "name": "logisticsCost",
                  "type": "uint256"
                },
                {
                  "internalType": "uint256",
                  "name": "itemCost",
                  "type": "uint256"
                },
                {
                  "internalType": "uint256",
                  "name": "totalCost",
                  "type": "uint256"
                },
                {
                  "internalType": "address",
                  "name": "sender",
                  "type": "address"
                },
                {
                  "internalType": "address",
                  "name": "transporter",
                  "type": "address"
                },
                {
                  "internalType": "address",
                  "name": "receiver",
                  "type": "address"
                },
                {
                  "internalType": "bool",
                  "name": "senderConfirmed",
                  "type": "bool"
                },
                {
                  "internalType": "bool",
                  "name": "transporterReceived",
                  "type": "bool"
                },
                {
                  "internalType": "bool",
                  "name": "transporterDelivered",
                  "type": "bool"
                },
                {
                  "internalType": "bool",
                  "name": "receiverConfirmed",
                  "type": "bool"
                }
              ],
              "internalType": "struct SupplyChain.Step[]",
              "name": "steps",
              "type": "tuple[]"
            },
            {
              "internalType": "uint256",
              "name": "totalFundedAmount",
              "type": "uint256"
            },
            {
              "internalType": "address",
              "name": "owner",
              "type": "address"
            },
            {
              "internalType": "bool",
              "name": "isFunded",
              "type": "bool"
            },
            {
              "internalType": "bool",
              "name": "isActive",
              "type": "bool"
            }
          ],
          "internalType": "struct SupplyChain.Chain",
          "name": "",
          "type": "tuple"
        }
      ],
      "stateMutability": "view",
      "type": "function"
    },
    {
      "inputs": [
        {
          "internalType": "uint256",
          "name": "",
          "type": "uint256"
        }
      ],
      "name": "supplychains",
      "outputs": [
        {
          "internalType": "uint256",
          "name": "id",
          "type": "uint256"
        },
        {
          "internalType": "string",
          "name": "name",
          "type": "string"
        },
        {
          "internalType": "string",
          "name": "description",
          "type": "string"
        },
        {
          "internalType": "uint256",
          "name": "totalFundedAmount",
          "type": "uint256"
        },
        {
          "internalType": "address",
          "name": "owner",
          "type": "address"
        },
        {
          "internalType": "bool",
          "name": "isFunded",
          "type": "bool"
        },
        {
          "internalType": "bool",
          "name": "isActive",
          "type": "bool"
        }
      ],
      "stateMutability": "view",
      "type": "function"
    }
  ],
  "bytecode": "0x60806040523480156200001157600080fd5b50604051620029de380380620029de83398181016040528101906200003791906200020a565b826000806101000a81548173ffffffffffffffffffffffffffffffffffffffff021916908373ffffffffffffffffffffffffffffffffffffffff16021790555081600160006101000a81548173ffffffffffffffffffffffffffffffffffffffff021916908373ffffffffffffffffffffffffffffffffffffffff16021790555080600260006101000a81548173ffffffffffffffffffffffffffffffffffffffff021916908373ffffffffffffffffffffffffffffffffffffffff16021790555050505062000266565b600080fd5b600073ffffffffffffffffffffffffffffffffffffffff82169050919050565b6000620001348262000107565b9050919050565b6000620001488262000127565b9050919050565b6200015a816200013b565b81146200016657600080fd5b50565b6000815190506200017a816200014f565b92915050565b60006200018d8262000127565b9050919050565b6200019f8162000180565b8114620001ab57600080fd5b50565b600081519050620001bf8162000194565b92915050565b6000620001d28262000127565b9050919050565b620001e481620001c5565b8114620001f057600080fd5b50565b6000815190506200020481620001d9565b92915050565b60008060006060848603121562000226576200022562000102565b5b6000620002368682870162000169565b93505060206200024986828701620001ae565b92505060406200025c86828701620001f3565b9150509250925092565b61276880620002766000396000f3fe608060405234801561001057600080fd5b506004361061009e5760003560e01c806391c5bdee1161006657806391c5bdee1461016d5780639994580b146101895780639b74b775146101a5578063e9368de9146101c1578063ede208fd146101f75761009e565b806320fe1b36146100a357806359b281a6146100d35780636f6c93e0146101035780637f0aa9c91461012157806384a3492514610151575b600080fd5b6100bd60048036038101906100b8919061140c565b610213565b6040516100ca919061184e565b60405180910390f35b6100ed60048036038101906100e89190611b54565b6106a7565b6040516100fa9190611c0a565b60405180910390f35b61010b610eda565b6040516101189190611c0a565b60405180910390f35b61013b60048036038101906101369190611db5565b610ee6565b6040516101489190611df2565b60405180910390f35b61016b60048036038101906101669190611e0d565b610f1f565b005b61018760048036038101906101829190611e0d565b610f7b565b005b6101a3600480360381019061019e919061140c565b610fd7565b005b6101bf60048036038101906101ba9190611e0d565b61102c565b005b6101db60048036038101906101d6919061140c565b611088565b6040516101ee9796959493929190611ea6565b60405180910390f35b610211600480360381019061020c9190611e0d565b611214565b005b61021b611363565b61022f82600361127090919063ffffffff16565b61026e576040517f08c379a000000000000000000000000000000000000000000000000000000000815260040161026590611f6f565b60405180910390fd5b6005600083815260200190815260200160002060405180610100016040529081600082015481526020016001820180546102a790611fbe565b80601f01602080910402602001604051908101604052809291908181526020018280546102d390611fbe565b80156103205780601f106102f557610100808354040283529160200191610320565b820191906000526020600020905b81548152906001019060200180831161030357829003601f168201915b5050505050815260200160028201805461033990611fbe565b80601f016020809104026020016040519081016040528092919081815260200182805461036590611fbe565b80156103b25780601f10610387576101008083540402835291602001916103b2565b820191906000526020600020905b81548152906001019060200180831161039557829003601f168201915b5050505050815260200160038201805480602002602001604051908101604052809291908181526020016000905b8282101561060257838290600052602060002090600b0201604051806101e0016040529081600082015481526020016001820160009054906101000a900460ff16600181111561043357610432611504565b5b600181111561044557610444611504565b5b81526020016002820154815260200160038201548152602001600482015481526020016005820154815260200160068201548152602001600782015481526020016008820160009054906101000a900473ffffffffffffffffffffffffffffffffffffffff1673ffffffffffffffffffffffffffffffffffffffff1673ffffffffffffffffffffffffffffffffffffffff1681526020016009820160009054906101000a900473ffffffffffffffffffffffffffffffffffffffff1673ffffffffffffffffffffffffffffffffffffffff1673ffffffffffffffffffffffffffffffffffffffff168152602001600a820160009054906101000a900473ffffffffffffffffffffffffffffffffffffffff1673ffffffffffffffffffffffffffffffffffffffff1673ffffffffffffffffffffffffffffffffffffffff168152602001600a820160149054906101000a900460ff16151515158152602001600a820160159054906101000a900460ff16151515158152602001600a820160169054906101000a900460ff16151515158152602001600a820160179054906101000a900460ff161515151581525050815260200190600101906103e0565b505050508152602001600482015481526020016005820160009054906101000a900473ffffffffffffffffffffffffffffffffffffffff1673ffffffffffffffffffffffffffffffffffffffff1673ffffffffffffffffffffffffffffffffffffffff1681526020016005820160149054906101000a900460ff161515151581526020016005820160159054906101000a900460ff1615151515815250509050919050565b60006106b3600661128a565b60006106bf60066112a0565b90506000600560008381526020019081526020016000209050818160000181905550858160010190816106f2919061219b565b5084816002019081610704919061219b565b506000816004018190555060008160050160146101000a81548160ff02191690831515021790555060008160050160156101000a81548160ff0219169083151502179055506107516112ae565b8160050160006101000a81548173ffffffffffffffffffffffffffffffffffffffff021916908373ffffffffffffffffffffffffffffffffffffffff1602179055506000805b8551811015610eb757600082905082806107b09061229c565b93505060008060008060008060008054906101000a900473ffffffffffffffffffffffffffffffffffffffff1673ffffffffffffffffffffffffffffffffffffffff166313ded4c48e8a8151811061080b5761080a6122e4565b5b6020026020010151604001516040518263ffffffff1660e01b81526004016108339190611c0a565b600060405180830381865afa158015610850573d6000803e3d6000fd5b505050506040513d6000823e3d601f19601f820116820180604052508101906108799190612441565b905080606001519450806040015192506000600181111561089d5761089c611504565b5b8d89815181106108b0576108af6122e4565b5b60200260200101516000015160018111156108ce576108cd611504565b5b036109d3576000600160009054906101000a900473ffffffffffffffffffffffffffffffffffffffff1673ffffffffffffffffffffffffffffffffffffffff16635cb93e848f8b81518110610926576109256122e4565b5b6020026020010151602001516040518263ffffffff1660e01b815260040161094e9190611c0a565b600060405180830381865afa15801561096b573d6000803e3d6000fd5b505050506040513d6000823e3d601f19601f82011682018060405250810190610994919061255a565b90508d89815181106109a9576109a86122e4565b5b60200260200101516060015181608001516109c491906125a3565b94508060c00151925050610b19565b6001808111156109e6576109e5611504565b5b8d89815181106109f9576109f86122e4565b5b6020026020010151600001516001811115610a1757610a16611504565b5b03610b18576000600260009054906101000a900473ffffffffffffffffffffffffffffffffffffffff1673ffffffffffffffffffffffffffffffffffffffff1663ef0e239b8f8b81518110610a6f57610a6e6122e4565b5b6020026020010151602001516040518263ffffffff1660e01b8152600401610a979190611c0a565b600060405180830381865afa158015610ab4573d6000803e3d6000fd5b505050506040513d6000823e3d601f19601f82011682018060405250810190610add91906126b5565b90508d8981518110610af257610af16122e4565b5b6020026020010151606001518160400151610b0d91906125a3565b94508060c001519250505b5b8385610b2591906126fe565b95506000604051806101e001604052808981526020018f8b81518110610b4e57610b4d6122e4565b5b6020026020010151600001516001811115610b6c57610b6b611504565b5b81526020018f8b81518110610b8457610b836122e4565b5b60200260200101516020015181526020018f8b81518110610ba857610ba76122e4565b5b60200260200101516040015181526020018f8b81518110610bcc57610bcb6122e4565b5b60200260200101516060015181526020018781526020018681526020018881526020018473ffffffffffffffffffffffffffffffffffffffff1681526020018573ffffffffffffffffffffffffffffffffffffffff1681526020018f8b81518110610c3a57610c396122e4565b5b60200260200101516080015173ffffffffffffffffffffffffffffffffffffffff1681526020016000151581526020016000151581526020016000151581526020016000151581525090508a6003018190806001815401808255809150506001900390600052602060002090600b02016000909190919091506000820151816000015560208201518160010160006101000a81548160ff02191690836001811115610ce857610ce7611504565b5b021790555060408201518160020155606082015181600301556080820151816004015560a0820151816005015560c0820151816006015560e082015181600701556101008201518160080160006101000a81548173ffffffffffffffffffffffffffffffffffffffff021916908373ffffffffffffffffffffffffffffffffffffffff1602179055506101208201518160090160006101000a81548173ffffffffffffffffffffffffffffffffffffffff021916908373ffffffffffffffffffffffffffffffffffffffff16021790555061014082015181600a0160006101000a81548173ffffffffffffffffffffffffffffffffffffffff021916908373ffffffffffffffffffffffffffffffffffffffff16021790555061016082015181600a0160146101000a81548160ff02191690831515021790555061018082015181600a0160156101000a81548160ff0219169083151502179055506101a082015181600a0160166101000a81548160ff0219169083151502179055506101c082015181600a0160176101000a81548160ff0219169083151502179055505050868b6004016000828254610e9b91906126fe565b9250508190555050505050505050508080600101915050610797565b50610ecc8360036112b690919063ffffffff16565b508293505050509392505050565b60068060000154905081565b60008161016001518015610efc57508161018001515b8015610f0a5750816101a001515b8015610f185750816101c001515b9050919050565b6000600560008481526020019081526020016000206003018281548110610f4957610f486122e4565b5b90600052602060002090600b02019050600181600a0160166101000a81548160ff021916908315150217905550505050565b6000600560008481526020019081526020016000206003018281548110610fa557610fa46122e4565b5b90600052602060002090600b02019050600181600a0160176101000a81548160ff021916908315150217905550505050565b600060056000838152602001908152602001600020905060018160050160146101000a81548160ff02191690831515021790555060018160050160156101000a81548160ff0219169083151502179055505050565b6000600560008481526020019081526020016000206003018281548110611056576110556122e4565b5b90600052602060002090600b02019050600181600a0160146101000a81548160ff021916908315150217905550505050565b60056020528060005260406000206000915090508060000154908060010180546110b190611fbe565b80601f01602080910402602001604051908101604052809291908181526020018280546110dd90611fbe565b801561112a5780601f106110ff5761010080835404028352916020019161112a565b820191906000526020600020905b81548152906001019060200180831161110d57829003601f168201915b50505050509080600201805461113f90611fbe565b80601f016020809104026020016040519081016040528092919081815260200182805461116b90611fbe565b80156111b85780601f1061118d576101008083540402835291602001916111b8565b820191906000526020600020905b81548152906001019060200180831161119b57829003601f168201915b5050505050908060040154908060050160009054906101000a900473ffffffffffffffffffffffffffffffffffffffff16908060050160149054906101000a900460ff16908060050160159054906101000a900460ff16905087565b600060056000848152602001908152602001600020600301828154811061123e5761123d6122e4565b5b90600052602060002090600b02019050600181600a0160156101000a81548160ff021916908315150217905550505050565b6000611282836000018360001b6112d0565b905092915050565b6001816000016000828254019250508190555050565b600081600001549050919050565b600032905090565b60006112c8836000018360001b6112f3565b905092915050565b600080836001016000848152602001908152602001600020541415905092915050565b60006112ff83836112d0565b61135857826000018290806001815401808255809150506001900390600052602060002001600090919091909150558260000180549050836001016000848152602001908152602001600020819055506001905061135d565b600090505b92915050565b6040518061010001604052806000815260200160608152602001606081526020016060815260200160008152602001600073ffffffffffffffffffffffffffffffffffffffff1681526020016000151581526020016000151581525090565b6000604051905090565b600080fd5b600080fd5b6000819050919050565b6113e9816113d6565b81146113f457600080fd5b50565b600081359050611406816113e0565b92915050565b600060208284031215611422576114216113cc565b5b6000611430848285016113f7565b91505092915050565b611442816113d6565b82525050565b600081519050919050565b600082825260208201905092915050565b60005b83811015611482578082015181840152602081019050611467565b60008484015250505050565b6000601f19601f8301169050919050565b60006114aa82611448565b6114b48185611453565b93506114c4818560208601611464565b6114cd8161148e565b840191505092915050565b600081519050919050565b600082825260208201905092915050565b6000819050602082019050919050565b7f4e487b7100000000000000000000000000000000000000000000000000000000600052602160045260246000fd5b6002811061154457611543611504565b5b50565b600081905061155582611533565b919050565b600061156582611547565b9050919050565b6115758161155a565b82525050565b600073ffffffffffffffffffffffffffffffffffffffff82169050919050565b60006115a68261157b565b9050919050565b6115b68161159b565b82525050565b60008115159050919050565b6115d1816115bc565b82525050565b6101e0820160008201516115ee6000850182611439565b506020820151611601602085018261156c565b5060408201516116146040850182611439565b5060608201516116276060850182611439565b50608082015161163a6080850182611439565b5060a082015161164d60a0850182611439565b5060c082015161166060c0850182611439565b5060e082015161167360e0850182611439565b506101008201516116886101008501826115ad565b5061012082015161169d6101208501826115ad565b506101408201516116b26101408501826115ad565b506101608201516116c76101608501826115c8565b506101808201516116dc6101808501826115c8565b506101a08201516116f16101a08501826115c8565b506101c08201516117066101c08501826115c8565b50505050565b600061171883836115d7565b6101e08301905092915050565b6000602082019050919050565b600061173d826114d8565b61174781856114e3565b9350611752836114f4565b8060005b8381101561178357815161176a888261170c565b975061177583611725565b925050600181019050611756565b5085935050505092915050565b6000610100830160008301516117a96000860182611439565b50602083015184820360208601526117c1828261149f565b915050604083015184820360408601526117db828261149f565b915050606083015184820360608601526117f58282611732565b915050608083015161180a6080860182611439565b5060a083015161181d60a08601826115ad565b5060c083015161183060c08601826115c8565b5060e083015161184360e08601826115c8565b508091505092915050565b600060208201905081810360008301526118688184611790565b905092915050565b600080fd5b600080fd5b7f4e487b7100000000000000000000000000000000000000000000000000000000600052604160045260246000fd5b6118b28261148e565b810181811067ffffffffffffffff821117156118d1576118d061187a565b5b80604052505050565b60006118e46113c2565b90506118f082826118a9565b919050565b600067ffffffffffffffff8211156119105761190f61187a565b5b6119198261148e565b9050602081019050919050565b82818337600083830152505050565b6000611948611943846118f5565b6118da565b90508281526020810184848401111561196457611963611875565b5b61196f848285611926565b509392505050565b600082601f83011261198c5761198b611870565b5b813561199c848260208601611935565b91505092915050565b600067ffffffffffffffff8211156119c0576119bf61187a565b5b602082029050602081019050919050565b600080fd5b600080fd5b600080fd5b600281106119ed57600080fd5b50565b6000813590506119ff816119e0565b92915050565b611a0e8161159b565b8114611a1957600080fd5b50565b600081359050611a2b81611a05565b92915050565b600060a08284031215611a4757611a466119d6565b5b611a5160a06118da565b90506000611a61848285016119f0565b6000830152506020611a75848285016113f7565b6020830152506040611a89848285016113f7565b6040830152506060611a9d848285016113f7565b6060830152506080611ab184828501611a1c565b60808301525092915050565b6000611ad0611acb846119a5565b6118da565b90508083825260208201905060a08402830185811115611af357611af26119d1565b5b835b81811015611b1c5780611b088882611a31565b84526020840193505060a081019050611af5565b5050509392505050565b600082601f830112611b3b57611b3a611870565b5b8135611b4b848260208601611abd565b91505092915050565b600080600060608486031215611b6d57611b6c6113cc565b5b600084013567ffffffffffffffff811115611b8b57611b8a6113d1565b5b611b9786828701611977565b935050602084013567ffffffffffffffff811115611bb857611bb76113d1565b5b611bc486828701611977565b925050604084013567ffffffffffffffff811115611be557611be46113d1565b5b611bf186828701611b26565b9150509250925092565b611c04816113d6565b82525050565b6000602082019050611c1f6000830184611bfb565b92915050565b611c2e816115bc565b8114611c3957600080fd5b50565b600081359050611c4b81611c25565b92915050565b60006101e08284031215611c6857611c676119d6565b5b611c736101e06118da565b90506000611c83848285016113f7565b6000830152506020611c97848285016119f0565b6020830152506040611cab848285016113f7565b6040830152506060611cbf848285016113f7565b6060830152506080611cd3848285016113f7565b60808301525060a0611ce7848285016113f7565b60a08301525060c0611cfb848285016113f7565b60c08301525060e0611d0f848285016113f7565b60e083015250610100611d2484828501611a1c565b61010083015250610120611d3a84828501611a1c565b61012083015250610140611d5084828501611a1c565b61014083015250610160611d6684828501611c3c565b61016083015250610180611d7c84828501611c3c565b610180830152506101a0611d9284828501611c3c565b6101a0830152506101c0611da884828501611c3c565b6101c08301525092915050565b60006101e08284031215611dcc57611dcb6113cc565b5b6000611dda84828501611c51565b91505092915050565b611dec816115bc565b82525050565b6000602082019050611e076000830184611de3565b92915050565b60008060408385031215611e2457611e236113cc565b5b6000611e32858286016113f7565b9250506020611e43858286016113f7565b9150509250929050565b600082825260208201905092915050565b6000611e6982611448565b611e738185611e4d565b9350611e83818560208601611464565b611e8c8161148e565b840191505092915050565b611ea08161159b565b82525050565b600060e082019050611ebb600083018a611bfb565b8181036020830152611ecd8189611e5e565b90508181036040830152611ee18188611e5e565b9050611ef06060830187611bfb565b611efd6080830186611e97565b611f0a60a0830185611de3565b611f1760c0830184611de3565b98975050505050505050565b7f537570706c79436861696e20646f6573206e6f74206578697374000000000000600082015250565b6000611f59601a83611e4d565b9150611f6482611f23565b602082019050919050565b60006020820190508181036000830152611f8881611f4c565b9050919050565b7f4e487b7100000000000000000000000000000000000000000000000000000000600052602260045260246000fd5b60006002820490506001821680611fd657607f821691505b602082108103611fe957611fe8611f8f565b5b50919050565b60008190508160005260206000209050919050565b60006020601f8301049050919050565b600082821b905092915050565b6000600883026120517fffffffffffffffffffffffffffffffffffffffffffffffffffffffffffffffff82612014565b61205b8683612014565b95508019841693508086168417925050509392505050565b6000819050919050565b600061209861209361208e846113d6565b612073565b6113d6565b9050919050565b6000819050919050565b6120b28361207d565b6120c66120be8261209f565b848454612021565b825550505050565b600090565b6120db6120ce565b6120e68184846120a9565b505050565b5b8181101561210a576120ff6000826120d3565b6001810190506120ec565b5050565b601f82111561214f5761212081611fef565b61212984612004565b81016020851015612138578190505b61214c61214485612004565b8301826120eb565b50505b505050565b600082821c905092915050565b600061217260001984600802612154565b1980831691505092915050565b600061218b8383612161565b9150826002028217905092915050565b6121a482611448565b67ffffffffffffffff8111156121bd576121bc61187a565b5b6121c78254611fbe565b6121d282828561210e565b600060209050601f83116001811461220557600084156121f3578287015190505b6121fd858261217f565b865550612265565b601f19841661221386611fef565b60005b8281101561223b57848901518255600182019150602085019450602081019050612216565b868310156122585784890151612254601f891682612161565b8355505b6001600288020188555050505b505050505050565b7f4e487b7100000000000000000000000000000000000000000000000000000000600052601160045260246000fd5b60006122a7826113d6565b91507fffffffffffffffffffffffffffffffffffffffffffffffffffffffffffffffff82036122d9576122d861226d565b5b600182019050919050565b7f4e487b7100000000000000000000000000000000000000000000000000000000600052603260045260246000fd5b600081519050612322816113e0565b92915050565b600061233b612336846118f5565b6118da565b90508281526020810184848401111561235757612356611875565b5b612362848285611464565b509392505050565b600082601f83011261237f5761237e611870565b5b815161238f848260208601612328565b91505092915050565b6000815190506123a781611a05565b92915050565b6000608082840312156123c3576123c26119d6565b5b6123cd60806118da565b905060006123dd84828501612313565b600083015250602082015167ffffffffffffffff811115612401576124006119db565b5b61240d8482850161236a565b602083015250604061242184828501612398565b604083015250606061243584828501612313565b60608301525092915050565b600060208284031215612457576124566113cc565b5b600082015167ffffffffffffffff811115612475576124746113d1565b5b612481848285016123ad565b91505092915050565b600060e082840312156124a05761249f6119d6565b5b6124aa60e06118da565b905060006124ba84828501612313565b600083015250602082015167ffffffffffffffff8111156124de576124dd6119db565b5b6124ea8482850161236a565b60208301525060406124fe84828501612313565b604083015250606061251284828501612313565b606083015250608061252684828501612313565b60808301525060a061253a84828501612313565b60a08301525060c061254e84828501612398565b60c08301525092915050565b6000602082840312156125705761256f6113cc565b5b600082015167ffffffffffffffff81111561258e5761258d6113d1565b5b61259a8482850161248a565b91505092915050565b60006125ae826113d6565b91506125b9836113d6565b92508282026125c7816113d6565b915082820484148315176125de576125dd61226d565b5b5092915050565b600060e082840312156125fb576125fa6119d6565b5b61260560e06118da565b9050600061261584828501612313565b600083015250602082015167ffffffffffffffff811115612639576126386119db565b5b6126458482850161236a565b602083015250604061265984828501612313565b604083015250606061266d84828501612313565b606083015250608061268184828501612313565b60808301525060a061269584828501612313565b60a08301525060c06126a984828501612398565b60c08301525092915050565b6000602082840312156126cb576126ca6113cc565b5b600082015167ffffffffffffffff8111156126e9576126e86113d1565b5b6126f5848285016125e5565b91505092915050565b6000612709826113d6565b9150612714836113d6565b925082820190508082111561272c5761272b61226d565b5b9291505056fea264697066735822122013d2bf36ecc9d07f5567453490dfbbe14a5ef965993af354065da6cba7d75bca64736f6c63430008180033",
  "linkReferences": {},
  "deployedLinkReferences": {}
}