{
  "_format": "hh-sol-artifact-1",
  "contractName": "SupplySphere",
  "address": "0xBC5DBA256B8DEdc33c15B195cD85345DBE01d7dD",
  "roles": {
    "SELLER": "0x43f25613eb2f15fb17222a5d424ca2655743e71265d98e4b93c05e5fb589ecde",
    "TRANSPORTER": "0xddaa901e2fe3bda354fe0ede2785152d5c109282a613fe024a056a3e66c41bb3",
    "MANUFACTURER": "0xeefb95e842a3287179d933b4460be539a1d5af11aa8b325bb45c5c8dc92de4ed",
    "RETAILER": "0x2a5f906c256a5d799494fcd066e1f6c077689de1cdb65052a1624de4bace99bf"
  },
  "sourceName": "contracts/SupplySphere.sol",
  "abi": [
    {
      "inputs": [
        {
          "internalType": "contract IERC20",
          "name": "_paymentToken",
          "type": "address"
        },
        {
          "internalType": "contract Logistics",
          "name": "_logistics",
          "type": "address"
        },
        {
          "internalType": "contract Products",
          "name": "_products",
          "type": "address"
        },
        {
          "internalType": "contract RawMaterials",
          "name": "_rawMaterials",
          "type": "address"
        },
        {
          "internalType": "contract Services",
          "name": "_services",
          "type": "address"
        },
        {
          "internalType": "contract SupplyChain",
          "name": "_supplyChain",
          "type": "address"
        }
      ],
      "stateMutability": "nonpayable",
      "type": "constructor"
    },
    {
      "inputs": [],
      "name": "AccessControlBadConfirmation",
      "type": "error"
    },
    {
      "inputs": [
        {
          "internalType": "address",
          "name": "account",
          "type": "address"
        },
        {
          "internalType": "bytes32",
          "name": "neededRole",
          "type": "bytes32"
        }
      ],
      "name": "AccessControlUnauthorizedAccount",
      "type": "error"
    },
    {
      "anonymous": false,
      "inputs": [
        {
          "indexed": true,
          "internalType": "bytes32",
          "name": "role",
          "type": "bytes32"
        },
        {
          "indexed": true,
          "internalType": "bytes32",
          "name": "previousAdminRole",
          "type": "bytes32"
        },
        {
          "indexed": true,
          "internalType": "bytes32",
          "name": "newAdminRole",
          "type": "bytes32"
        }
      ],
      "name": "RoleAdminChanged",
      "type": "event"
    },
    {
      "anonymous": false,
      "inputs": [
        {
          "indexed": true,
          "internalType": "bytes32",
          "name": "role",
          "type": "bytes32"
        },
        {
          "indexed": true,
          "internalType": "address",
          "name": "account",
          "type": "address"
        },
        {
          "indexed": true,
          "internalType": "address",
          "name": "sender",
          "type": "address"
        }
      ],
      "name": "RoleGranted",
      "type": "event"
    },
    {
      "anonymous": false,
      "inputs": [
        {
          "indexed": true,
          "internalType": "bytes32",
          "name": "role",
          "type": "bytes32"
        },
        {
          "indexed": true,
          "internalType": "address",
          "name": "account",
          "type": "address"
        },
        {
          "indexed": true,
          "internalType": "address",
          "name": "sender",
          "type": "address"
        }
      ],
      "name": "RoleRevoked",
      "type": "event"
    },
    {
      "inputs": [],
      "name": "DEFAULT_ADMIN_ROLE",
      "outputs": [
        {
          "internalType": "bytes32",
          "name": "",
          "type": "bytes32"
        }
      ],
      "stateMutability": "view",
      "type": "function"
    },
    {
      "inputs": [],
      "name": "MANUFACTURER_ROLE",
      "outputs": [
        {
          "internalType": "bytes32",
          "name": "",
          "type": "bytes32"
        }
      ],
      "stateMutability": "view",
      "type": "function"
    },
    {
      "inputs": [],
      "name": "SELLER_ROLE",
      "outputs": [
        {
          "internalType": "bytes32",
          "name": "",
          "type": "bytes32"
        }
      ],
      "stateMutability": "view",
      "type": "function"
    },
    {
      "inputs": [],
      "name": "TRANSPORTER_ROLE",
      "outputs": [
        {
          "internalType": "bytes32",
          "name": "",
          "type": "bytes32"
        }
      ],
      "stateMutability": "view",
      "type": "function"
    },
    {
      "inputs": [
        {
          "internalType": "string",
          "name": "name",
          "type": "string"
        },
        {
          "internalType": "uint256",
          "name": "price",
          "type": "uint256"
        }
      ],
      "name": "addLogistic",
      "outputs": [
        {
          "internalType": "uint256",
          "name": "",
          "type": "uint256"
        }
      ],
      "stateMutability": "nonpayable",
      "type": "function"
    },
    {
      "inputs": [
        {
          "internalType": "string",
          "name": "name",
          "type": "string"
        },
        {
          "internalType": "uint256",
          "name": "price",
          "type": "uint256"
        },
        {
          "internalType": "uint256",
          "name": "tax",
          "type": "uint256"
        },
        {
          "internalType": "uint256",
          "name": "quantity",
          "type": "uint256"
        }
      ],
      "name": "addProduct",
      "outputs": [
        {
          "internalType": "uint256",
          "name": "",
          "type": "uint256"
        }
      ],
      "stateMutability": "nonpayable",
      "type": "function"
    },
    {
      "inputs": [
        {
          "internalType": "string",
          "name": "name",
          "type": "string"
        },
        {
          "internalType": "uint256",
          "name": "price",
          "type": "uint256"
        },
        {
          "internalType": "uint256",
          "name": "tax",
          "type": "uint256"
        },
        {
          "internalType": "uint256",
          "name": "quantity",
          "type": "uint256"
        }
      ],
      "name": "addRawMaterial",
      "outputs": [
        {
          "internalType": "uint256",
          "name": "",
          "type": "uint256"
        }
      ],
      "stateMutability": "nonpayable",
      "type": "function"
    },
    {
      "inputs": [
        {
          "internalType": "string",
          "name": "name",
          "type": "string"
        },
        {
          "internalType": "uint256",
          "name": "price",
          "type": "uint256"
        },
        {
          "internalType": "uint256",
          "name": "tax",
          "type": "uint256"
        },
        {
          "internalType": "uint256",
          "name": "quantity",
          "type": "uint256"
        },
        {
          "internalType": "uint256",
          "name": "volume",
          "type": "uint256"
        }
      ],
      "name": "addService",
      "outputs": [
        {
          "internalType": "uint256",
          "name": "",
          "type": "uint256"
        }
      ],
      "stateMutability": "nonpayable",
      "type": "function"
    },
    {
      "inputs": [
        {
          "internalType": "uint256",
          "name": "supplyChainId",
          "type": "uint256"
        },
        {
          "internalType": "uint256",
          "name": "stepId",
          "type": "uint256"
        }
      ],
      "name": "confirmReceiver",
      "outputs": [],
      "stateMutability": "nonpayable",
      "type": "function"
    },
    {
      "inputs": [
        {
          "internalType": "uint256",
          "name": "supplyChainId",
          "type": "uint256"
        },
        {
          "internalType": "uint256",
          "name": "stepId",
          "type": "uint256"
        }
      ],
      "name": "confirmSender",
      "outputs": [],
      "stateMutability": "nonpayable",
      "type": "function"
    },
    {
      "inputs": [
        {
          "internalType": "uint256",
          "name": "supplyChainId",
          "type": "uint256"
        },
        {
          "internalType": "uint256",
          "name": "stepId",
          "type": "uint256"
        }
      ],
      "name": "confirmTransporterDelivered",
      "outputs": [],
      "stateMutability": "nonpayable",
      "type": "function"
    },
    {
      "inputs": [
        {
          "internalType": "uint256",
          "name": "supplyChainId",
          "type": "uint256"
        },
        {
          "internalType": "uint256",
          "name": "stepId",
          "type": "uint256"
        }
      ],
      "name": "confirmTransporterReceived",
      "outputs": [],
      "stateMutability": "nonpayable",
      "type": "function"
    },
    {
      "inputs": [
        {
          "internalType": "string",
          "name": "name",
          "type": "string"
        },
        {
          "internalType": "string",
          "name": "description",
          "type": "string"
        },
        {
          "components": [
            {
              "internalType": "enum SupplyChain.StepType",
              "name": "stepType",
              "type": "uint8"
            },
            {
              "internalType": "uint256",
              "name": "itemId",
              "type": "uint256"
            },
            {
              "internalType": "uint256",
              "name": "logisticsId",
              "type": "uint256"
            },
            {
              "internalType": "uint256",
              "name": "quantity",
              "type": "uint256"
            },
            {
              "internalType": "address",
              "name": "receiver",
              "type": "address"
            }
          ],
          "internalType": "struct SupplyChain.StepInput[]",
          "name": "_steps",
          "type": "tuple[]"
        }
      ],
      "name": "createSupplyChain",
      "outputs": [
        {
          "internalType": "uint256",
          "name": "",
          "type": "uint256"
        }
      ],
      "stateMutability": "nonpayable",
      "type": "function"
    },
    {
      "inputs": [
        {
          "internalType": "uint256",
          "name": "chainId",
          "type": "uint256"
        }
      ],
      "name": "fundChain",
      "outputs": [],
      "stateMutability": "nonpayable",
      "type": "function"
    },
    {
      "inputs": [],
      "name": "getAllLogistics",
      "outputs": [
        {
          "components": [
            {
              "internalType": "uint256",
              "name": "id",
              "type": "uint256"
            },
            {
              "internalType": "string",
              "name": "name",
              "type": "string"
            },
            {
              "internalType": "address",
              "name": "owner",
              "type": "address"
            },
            {
              "internalType": "uint256",
              "name": "price",
              "type": "uint256"
            }
          ],
          "internalType": "struct Logistics.Logistic[]",
          "name": "",
          "type": "tuple[]"
        }
      ],
      "stateMutability": "view",
      "type": "function"
    },
    {
      "inputs": [],
      "name": "getAllProducts",
      "outputs": [
        {
          "components": [
            {
              "internalType": "uint256",
              "name": "id",
              "type": "uint256"
            },
            {
              "internalType": "string",
              "name": "name",
              "type": "string"
            },
            {
              "internalType": "uint256",
              "name": "quantity",
              "type": "uint256"
            },
            {
              "internalType": "uint256",
              "name": "available",
              "type": "uint256"
            },
            {
              "internalType": "uint256",
              "name": "price",
              "type": "uint256"
            },
            {
              "internalType": "uint256",
              "name": "tax",
              "type": "uint256"
            },
            {
              "internalType": "address",
              "name": "owner",
              "type": "address"
            }
          ],
          "internalType": "struct Products.Product[]",
          "name": "",
          "type": "tuple[]"
        }
      ],
      "stateMutability": "view",
      "type": "function"
    },
    {
      "inputs": [],
      "name": "getAllRawMaterials",
      "outputs": [
        {
          "components": [
            {
              "internalType": "uint256",
              "name": "id",
              "type": "uint256"
            },
            {
              "internalType": "string",
              "name": "name",
              "type": "string"
            },
            {
              "internalType": "uint256",
              "name": "quantity",
              "type": "uint256"
            },
            {
              "internalType": "uint256",
              "name": "available",
              "type": "uint256"
            },
            {
              "internalType": "uint256",
              "name": "price",
              "type": "uint256"
            },
            {
              "internalType": "uint256",
              "name": "tax",
              "type": "uint256"
            },
            {
              "internalType": "address",
              "name": "owner",
              "type": "address"
            }
          ],
          "internalType": "struct RawMaterials.RawMaterial[]",
          "name": "",
          "type": "tuple[]"
        }
      ],
      "stateMutability": "view",
      "type": "function"
    },
    {
      "inputs": [],
      "name": "getAllServices",
      "outputs": [
        {
          "components": [
            {
              "internalType": "uint256",
              "name": "id",
              "type": "uint256"
            },
            {
              "internalType": "string",
              "name": "name",
              "type": "string"
            },
            {
              "internalType": "uint256",
              "name": "price",
              "type": "uint256"
            },
            {
              "internalType": "uint256",
              "name": "tax",
              "type": "uint256"
            },
            {
              "internalType": "uint256",
              "name": "quantity",
              "type": "uint256"
            },
            {
              "internalType": "uint256",
              "name": "volume",
              "type": "uint256"
            },
            {
              "internalType": "address",
              "name": "owner",
              "type": "address"
            }
          ],
          "internalType": "struct Services.Service[]",
          "name": "",
          "type": "tuple[]"
        }
      ],
      "stateMutability": "view",
      "type": "function"
    },
    {
      "inputs": [
        {
          "internalType": "uint256",
          "name": "id",
          "type": "uint256"
        }
      ],
      "name": "getLogistic",
      "outputs": [
        {
          "components": [
            {
              "internalType": "uint256",
              "name": "id",
              "type": "uint256"
            },
            {
              "internalType": "string",
              "name": "name",
              "type": "string"
            },
            {
              "internalType": "address",
              "name": "owner",
              "type": "address"
            },
            {
              "internalType": "uint256",
              "name": "price",
              "type": "uint256"
            }
          ],
          "internalType": "struct Logistics.Logistic",
          "name": "",
          "type": "tuple"
        }
      ],
      "stateMutability": "view",
      "type": "function"
    },
    {
      "inputs": [
        {
          "internalType": "uint256",
          "name": "id",
          "type": "uint256"
        }
      ],
      "name": "getProduct",
      "outputs": [
        {
          "components": [
            {
              "internalType": "uint256",
              "name": "id",
              "type": "uint256"
            },
            {
              "internalType": "string",
              "name": "name",
              "type": "string"
            },
            {
              "internalType": "uint256",
              "name": "quantity",
              "type": "uint256"
            },
            {
              "internalType": "uint256",
              "name": "available",
              "type": "uint256"
            },
            {
              "internalType": "uint256",
              "name": "price",
              "type": "uint256"
            },
            {
              "internalType": "uint256",
              "name": "tax",
              "type": "uint256"
            },
            {
              "internalType": "address",
              "name": "owner",
              "type": "address"
            }
          ],
          "internalType": "struct Products.Product",
          "name": "",
          "type": "tuple"
        }
      ],
      "stateMutability": "view",
      "type": "function"
    },
    {
      "inputs": [
        {
          "internalType": "uint256",
          "name": "id",
          "type": "uint256"
        }
      ],
      "name": "getRawMaterial",
      "outputs": [
        {
          "components": [
            {
              "internalType": "uint256",
              "name": "id",
              "type": "uint256"
            },
            {
              "internalType": "string",
              "name": "name",
              "type": "string"
            },
            {
              "internalType": "uint256",
              "name": "quantity",
              "type": "uint256"
            },
            {
              "internalType": "uint256",
              "name": "available",
              "type": "uint256"
            },
            {
              "internalType": "uint256",
              "name": "price",
              "type": "uint256"
            },
            {
              "internalType": "uint256",
              "name": "tax",
              "type": "uint256"
            },
            {
              "internalType": "address",
              "name": "owner",
              "type": "address"
            }
          ],
          "internalType": "struct RawMaterials.RawMaterial",
          "name": "",
          "type": "tuple"
        }
      ],
      "stateMutability": "view",
      "type": "function"
    },
    {
      "inputs": [
        {
          "internalType": "bytes32",
          "name": "role",
          "type": "bytes32"
        }
      ],
      "name": "getRoleAdmin",
      "outputs": [
        {
          "internalType": "bytes32",
          "name": "",
          "type": "bytes32"
        }
      ],
      "stateMutability": "view",
      "type": "function"
    },
    {
      "inputs": [
        {
          "internalType": "uint256",
          "name": "id",
          "type": "uint256"
        }
      ],
      "name": "getService",
      "outputs": [
        {
          "components": [
            {
              "internalType": "uint256",
              "name": "id",
              "type": "uint256"
            },
            {
              "internalType": "string",
              "name": "name",
              "type": "string"
            },
            {
              "internalType": "uint256",
              "name": "price",
              "type": "uint256"
            },
            {
              "internalType": "uint256",
              "name": "tax",
              "type": "uint256"
            },
            {
              "internalType": "uint256",
              "name": "quantity",
              "type": "uint256"
            },
            {
              "internalType": "uint256",
              "name": "volume",
              "type": "uint256"
            },
            {
              "internalType": "address",
              "name": "owner",
              "type": "address"
            }
          ],
          "internalType": "struct Services.Service",
          "name": "",
          "type": "tuple"
        }
      ],
      "stateMutability": "view",
      "type": "function"
    },
    {
      "inputs": [
        {
          "internalType": "uint256",
          "name": "id",
          "type": "uint256"
        }
      ],
      "name": "getSupplyChain",
      "outputs": [
        {
          "components": [
            {
              "internalType": "uint256",
              "name": "id",
              "type": "uint256"
            },
            {
              "internalType": "string",
              "name": "name",
              "type": "string"
            },
            {
              "internalType": "string",
              "name": "description",
              "type": "string"
            },
            {
              "components": [
                {
                  "internalType": "uint256",
                  "name": "stepId",
                  "type": "uint256"
                },
                {
                  "internalType": "enum SupplyChain.StepType",
                  "name": "stepType",
                  "type": "uint8"
                },
                {
                  "internalType": "uint256",
                  "name": "itemId",
                  "type": "uint256"
                },
                {
                  "internalType": "uint256",
                  "name": "logisticsId",
                  "type": "uint256"
                },
                {
                  "internalType": "uint256",
                  "name": "quantity",
                  "type": "uint256"
                },
                {
                  "internalType": "uint256",
                  "name": "logisticsCost",
                  "type": "uint256"
                },
                {
                  "internalType": "uint256",
                  "name": "itemCost",
                  "type": "uint256"
                },
                {
                  "internalType": "uint256",
                  "name": "totalCost",
                  "type": "uint256"
                },
                {
                  "internalType": "address",
                  "name": "sender",
                  "type": "address"
                },
                {
                  "internalType": "address",
                  "name": "transporter",
                  "type": "address"
                },
                {
                  "internalType": "address",
                  "name": "receiver",
                  "type": "address"
                },
                {
                  "internalType": "bool",
                  "name": "senderConfirmed",
                  "type": "bool"
                },
                {
                  "internalType": "bool",
                  "name": "transporterReceived",
                  "type": "bool"
                },
                {
                  "internalType": "bool",
                  "name": "transporterDelivered",
                  "type": "bool"
                },
                {
                  "internalType": "bool",
                  "name": "receiverConfirmed",
                  "type": "bool"
                }
              ],
              "internalType": "struct SupplyChain.Step[]",
              "name": "steps",
              "type": "tuple[]"
            },
            {
              "internalType": "uint256",
              "name": "totalFundedAmount",
              "type": "uint256"
            },
            {
              "internalType": "address",
              "name": "owner",
              "type": "address"
            },
            {
              "internalType": "bool",
              "name": "isFunded",
              "type": "bool"
            },
            {
              "internalType": "bool",
              "name": "isActive",
              "type": "bool"
            }
          ],
          "internalType": "struct SupplyChain.Chain",
          "name": "",
          "type": "tuple"
        }
      ],
      "stateMutability": "view",
      "type": "function"
    },
    {
      "inputs": [
        {
          "internalType": "bytes32",
          "name": "role",
          "type": "bytes32"
        },
        {
          "internalType": "address",
          "name": "account",
          "type": "address"
        }
      ],
      "name": "grantRole",
      "outputs": [],
      "stateMutability": "nonpayable",
      "type": "function"
    },
    {
      "inputs": [
        {
          "internalType": "bytes32",
          "name": "role",
          "type": "bytes32"
        },
        {
          "internalType": "address",
          "name": "account",
          "type": "address"
        }
      ],
      "name": "hasRole",
      "outputs": [
        {
          "internalType": "bool",
          "name": "",
          "type": "bool"
        }
      ],
      "stateMutability": "view",
      "type": "function"
    },
    {
      "inputs": [],
      "name": "paymentToken",
      "outputs": [
        {
          "internalType": "contract IERC20",
          "name": "",
          "type": "address"
        }
      ],
      "stateMutability": "view",
      "type": "function"
    },
    {
      "inputs": [
        {
          "internalType": "bytes32",
          "name": "role",
          "type": "bytes32"
        }
      ],
      "name": "registerUser",
      "outputs": [
        {
          "internalType": "bool",
          "name": "",
          "type": "bool"
        }
      ],
      "stateMutability": "nonpayable",
      "type": "function"
    },
    {
      "inputs": [
        {
          "internalType": "uint256",
          "name": "id",
          "type": "uint256"
        }
      ],
      "name": "removeLogistic",
      "outputs": [],
      "stateMutability": "nonpayable",
      "type": "function"
    },
    {
      "inputs": [
        {
          "internalType": "uint256",
          "name": "id",
          "type": "uint256"
        }
      ],
      "name": "removeProduct",
      "outputs": [],
      "stateMutability": "nonpayable",
      "type": "function"
    },
    {
      "inputs": [
        {
          "internalType": "uint256",
          "name": "id",
          "type": "uint256"
        }
      ],
      "name": "removeRawMaterial",
      "outputs": [],
      "stateMutability": "nonpayable",
      "type": "function"
    },
    {
      "inputs": [
        {
          "internalType": "uint256",
          "name": "id",
          "type": "uint256"
        }
      ],
      "name": "removeService",
      "outputs": [],
      "stateMutability": "nonpayable",
      "type": "function"
    },
    {
      "inputs": [
        {
          "internalType": "bytes32",
          "name": "role",
          "type": "bytes32"
        },
        {
          "internalType": "address",
          "name": "callerConfirmation",
          "type": "address"
        }
      ],
      "name": "renounceRole",
      "outputs": [],
      "stateMutability": "nonpayable",
      "type": "function"
    },
    {
      "inputs": [
        {
          "internalType": "bytes32",
          "name": "role",
          "type": "bytes32"
        },
        {
          "internalType": "address",
          "name": "account",
          "type": "address"
        }
      ],
      "name": "revokeRole",
      "outputs": [],
      "stateMutability": "nonpayable",
      "type": "function"
    },
    {
      "inputs": [
        {
          "internalType": "bytes4",
          "name": "interfaceId",
          "type": "bytes4"
        }
      ],
      "name": "supportsInterface",
      "outputs": [
        {
          "internalType": "bool",
          "name": "",
          "type": "bool"
        }
      ],
      "stateMutability": "view",
      "type": "function"
    }
  ],
  "bytecode": "0x60806040523480156200001157600080fd5b50604051620055f9380380620055f983398181016040528101906200003791906200053a565b6200005b6000801b6200004f620001ee60201b60201c565b620001f660201b60201c565b5085600660006101000a81548173ffffffffffffffffffffffffffffffffffffffff021916908373ffffffffffffffffffffffffffffffffffffffff16021790555084600160006101000a81548173ffffffffffffffffffffffffffffffffffffffff021916908373ffffffffffffffffffffffffffffffffffffffff16021790555083600260006101000a81548173ffffffffffffffffffffffffffffffffffffffff021916908373ffffffffffffffffffffffffffffffffffffffff16021790555082600360006101000a81548173ffffffffffffffffffffffffffffffffffffffff021916908373ffffffffffffffffffffffffffffffffffffffff16021790555081600460006101000a81548173ffffffffffffffffffffffffffffffffffffffff021916908373ffffffffffffffffffffffffffffffffffffffff16021790555080600560006101000a81548173ffffffffffffffffffffffffffffffffffffffff021916908373ffffffffffffffffffffffffffffffffffffffff160217905550505050505050620005d6565b600032905090565b60006200020a8383620002f960201b60201c565b620002ee57600160008085815260200190815260200160002060000160008473ffffffffffffffffffffffffffffffffffffffff1673ffffffffffffffffffffffffffffffffffffffff16815260200190815260200160002060006101000a81548160ff0219169083151502179055506200028a620001ee60201b60201c565b73ffffffffffffffffffffffffffffffffffffffff168273ffffffffffffffffffffffffffffffffffffffff16847f2f8788117e7eff1d82e926ec794901d17c78024a50270940304540a733656f0d60405160405180910390a460019050620002f3565b600090505b92915050565b600080600084815260200190815260200160002060000160008373ffffffffffffffffffffffffffffffffffffffff1673ffffffffffffffffffffffffffffffffffffffff16815260200190815260200160002060009054906101000a900460ff16905092915050565b600080fd5b600073ffffffffffffffffffffffffffffffffffffffff82169050919050565b6000620003958262000368565b9050919050565b6000620003a98262000388565b9050919050565b620003bb816200039c565b8114620003c757600080fd5b50565b600081519050620003db81620003b0565b92915050565b6000620003ee8262000388565b9050919050565b6200040081620003e1565b81146200040c57600080fd5b50565b6000815190506200042081620003f5565b92915050565b6000620004338262000388565b9050919050565b620004458162000426565b81146200045157600080fd5b50565b60008151905062000465816200043a565b92915050565b6000620004788262000388565b9050919050565b6200048a816200046b565b81146200049657600080fd5b50565b600081519050620004aa816200047f565b92915050565b6000620004bd8262000388565b9050919050565b620004cf81620004b0565b8114620004db57600080fd5b50565b600081519050620004ef81620004c4565b92915050565b6000620005028262000388565b9050919050565b6200051481620004f5565b81146200052057600080fd5b50565b600081519050620005348162000509565b92915050565b60008060008060008060c087890312156200055a576200055962000363565b5b60006200056a89828a01620003ca565b96505060206200057d89828a016200040f565b95505060406200059089828a0162000454565b9450506060620005a389828a0162000499565b9350506080620005b689828a01620004de565b92505060a0620005c989828a0162000523565b9150509295509295509295565b61501380620005e66000396000f3fe608060405234801561001057600080fd5b50600436106102115760003560e01c80635cb93e8411610125578063b05b10e9116100ad578063d547741f1161007c578063d547741f14610670578063dbe4613d1461068c578063ef0e239b146106aa578063fab4f7e7146106da578063fac0992d146106f657610211565b8063b05b10e9146105d6578063b7526530146105f4578063b9db15b414610610578063c8012aa31461064057610211565b80638b72f52c116100f45780638b72f52c1461053257806391d148541461054e578063965288b01461057e5780639b66b1391461059c578063a217fddf146105b857610211565b80635cb93e84146104ae5780635ee95cae146104de5780637c0bded0146104fa5780637c1df52e1461051657610211565b8063248a9ca3116101a857806336568abe1161017757806336568abe146103f85780634caa94d2146104145780634eabbe771461044457806359b281a6146104625780635aff3e821461049257610211565b8063248a9ca31461035e5780632dc032591461038e5780632f2ff15d146103be5780633013ce29146103da57610211565b806313ded4c4116101e457806313ded4c4146102c457806320fe1b36146102f457806321ba76161461032457806321fe0f301461034057610211565b806301ffc9a71461021657806302223c201461024657806302ee3a5214610276578063094455c414610294575b600080fd5b610230600480360381019061022b919061262f565b610714565b60405161023d9190612677565b60405180910390f35b610260600480360381019061025b919061272d565b61078e565b60405161026d91906127d6565b60405180910390f35b61027e61086f565b60405161028b9190612a2f565b60405180910390f35b6102ae60048036038101906102a99190612a51565b61090c565b6040516102bb91906127d6565b60405180910390f35b6102de60048036038101906102d99190612ad9565b6109ea565b6040516102eb9190612b69565b60405180910390f35b61030e60048036038101906103099190612ad9565b610a9a565b60405161031b9190612eb4565b60405180910390f35b61033e60048036038101906103399190612ed6565b610b4a565b005b610348610c56565b6040516103559190613074565b60405180910390f35b610378600480360381019061037391906130cc565b610cf3565b6040516103859190613108565b60405180910390f35b6103a860048036038101906103a391906130cc565b610d12565b6040516103b59190612677565b60405180910390f35b6103d860048036038101906103d3919061314f565b610d2c565b005b6103e2610d4e565b6040516103ef91906131ee565b60405180910390f35b610412600480360381019061040d919061314f565b610d74565b005b61042e60048036038101906104299190613209565b610def565b60405161043b91906127d6565b60405180910390f35b61044c610ec7565b6040516104599190613108565b60405180910390f35b61047c60048036038101906104779190613517565b610eeb565b60405161048991906127d6565b60405180910390f35b6104ac60048036038101906104a79190612ad9565b610fc3565b005b6104c860048036038101906104c39190612ad9565b61107e565b6040516104d5919061365a565b60405180910390f35b6104f860048036038101906104f39190612ad9565b61112e565b005b610514600480360381019061050f9190612ed6565b6111e9565b005b610530600480360381019061052b9190612ad9565b6113fa565b005b61054c60048036038101906105479190612ad9565b6114b5565b005b6105686004803603810190610563919061314f565b61183b565b6040516105759190612677565b60405180910390f35b6105866118a5565b6040516105939190613108565b60405180910390f35b6105b660048036038101906105b19190612ad9565b6118c9565b005b6105c0611984565b6040516105cd9190613108565b60405180910390f35b6105de61198b565b6040516105eb91906137a1565b60405180910390f35b61060e60048036038101906106099190612ed6565b611a28565b005b61062a60048036038101906106259190612ad9565b611ae6565b604051610637919061385f565b60405180910390f35b61065a60048036038101906106559190612a51565b611b96565b60405161066791906127d6565b60405180910390f35b61068a6004803603810190610685919061314f565b611c74565b005b610694611c96565b6040516106a19190613108565b60405180910390f35b6106c460048036038101906106bf9190612ad9565b611cba565b6040516106d1919061391d565b60405180910390f35b6106f460048036038101906106ef9190612ed6565b611d6a565b005b6106fe611e28565b60405161070b9190613a9d565b60405180910390f35b60007f7965db0b000000000000000000000000000000000000000000000000000000007bffffffffffffffffffffffffffffffffffffffffffffffffffffffff1916827bffffffffffffffffffffffffffffffffffffffffffffffffffffffff19161480610787575061078682611ec5565b5b9050919050565b60007f43f25613eb2f15fb17222a5d424ca2655743e71265d98e4b93c05e5fb589ecde6107ba81611f2f565b600460009054906101000a900473ffffffffffffffffffffffffffffffffffffffff1673ffffffffffffffffffffffffffffffffffffffff166302223c208989898989896040518763ffffffff1660e01b815260040161081f96959493929190613afd565b6020604051808303816000875af115801561083e573d6000803e3d6000fd5b505050506040513d601f19601f820116820180604052508101906108629190613b6e565b9150509695505050505050565b6060600260009054906101000a900473ffffffffffffffffffffffffffffffffffffffff1673ffffffffffffffffffffffffffffffffffffffff166302ee3a526040518163ffffffff1660e01b8152600401600060405180830381865afa1580156108de573d6000803e3d6000fd5b505050506040513d6000823e3d601f19601f820116820180604052508101906109079190613dd1565b905090565b60007feefb95e842a3287179d933b4460be539a1d5af11aa8b325bb45c5c8dc92de4ed61093881611f2f565b600260009054906101000a900473ffffffffffffffffffffffffffffffffffffffff1673ffffffffffffffffffffffffffffffffffffffff1663094455c488888888886040518663ffffffff1660e01b815260040161099b959493929190613e1a565b6020604051808303816000875af11580156109ba573d6000803e3d6000fd5b505050506040513d601f19601f820116820180604052508101906109de9190613b6e565b91505095945050505050565b6109f261242d565b600160009054906101000a900473ffffffffffffffffffffffffffffffffffffffff1673ffffffffffffffffffffffffffffffffffffffff166313ded4c4836040518263ffffffff1660e01b8152600401610a4d91906127d6565b600060405180830381865afa158015610a6a573d6000803e3d6000fd5b505050506040513d6000823e3d601f19601f82011682018060405250810190610a939190613efc565b9050919050565b610aa261246b565b600560009054906101000a900473ffffffffffffffffffffffffffffffffffffffff1673ffffffffffffffffffffffffffffffffffffffff166320fe1b36836040518263ffffffff1660e01b8152600401610afd91906127d6565b600060405180830381865afa158015610b1a573d6000803e3d6000fd5b505050506040513d6000823e3d601f19601f82011682018060405250810190610b4391906142cd565b9050919050565b610b7b7f43f25613eb2f15fb17222a5d424ca2655743e71265d98e4b93c05e5fb589ecde610b76611f43565b61183b565b610bc357610b87611f43565b6040517fe2517d3f000000000000000000000000000000000000000000000000000000008152600401610bba919061434b565b60405180910390fd5b600560009054906101000a900473ffffffffffffffffffffffffffffffffffffffff1673ffffffffffffffffffffffffffffffffffffffff16639b74b77583836040518363ffffffff1660e01b8152600401610c20929190614372565b600060405180830381600087803b158015610c3a57600080fd5b505af1158015610c4e573d6000803e3d6000fd5b505050505050565b6060600460009054906101000a900473ffffffffffffffffffffffffffffffffffffffff1673ffffffffffffffffffffffffffffffffffffffff166321fe0f306040518163ffffffff1660e01b8152600401600060405180830381865afa158015610cc5573d6000803e3d6000fd5b505050506040513d6000823e3d601f19601f82011682018060405250810190610cee919061454c565b905090565b6000806000838152602001908152602001600020600101549050919050565b6000610d2582610d20611f43565b611f4b565b9050919050565b610d3582610cf3565b610d3e81611f2f565b610d488383611f4b565b50505050565b600660009054906101000a900473ffffffffffffffffffffffffffffffffffffffff1681565b610d7c611f43565b73ffffffffffffffffffffffffffffffffffffffff168173ffffffffffffffffffffffffffffffffffffffff1614610de0576040517f6697b23200000000000000000000000000000000000000000000000000000000815260040160405180910390fd5b610dea828261203c565b505050565b60007fddaa901e2fe3bda354fe0ede2785152d5c109282a613fe024a056a3e66c41bb3610e1b81611f2f565b600160009054906101000a900473ffffffffffffffffffffffffffffffffffffffff1673ffffffffffffffffffffffffffffffffffffffff166356a379d58686866040518463ffffffff1660e01b8152600401610e7a93929190614595565b6020604051808303816000875af1158015610e99573d6000803e3d6000fd5b505050506040513d601f19601f82011682018060405250810190610ebd9190613b6e565b9150509392505050565b7fddaa901e2fe3bda354fe0ede2785152d5c109282a613fe024a056a3e66c41bb381565b60007feefb95e842a3287179d933b4460be539a1d5af11aa8b325bb45c5c8dc92de4ed610f1781611f2f565b600560009054906101000a900473ffffffffffffffffffffffffffffffffffffffff1673ffffffffffffffffffffffffffffffffffffffff166359b281a68686866040518463ffffffff1660e01b8152600401610f7693929190614717565b6020604051808303816000875af1158015610f95573d6000803e3d6000fd5b505050506040513d601f19601f82011682018060405250810190610fb99190613b6e565b9150509392505050565b7f43f25613eb2f15fb17222a5d424ca2655743e71265d98e4b93c05e5fb589ecde610fed81611f2f565b600360009054906101000a900473ffffffffffffffffffffffffffffffffffffffff1673ffffffffffffffffffffffffffffffffffffffff16635aff3e82836040518263ffffffff1660e01b815260040161104891906127d6565b600060405180830381600087803b15801561106257600080fd5b505af1158015611076573d6000803e3d6000fd5b505050505050565b6110866124ca565b600360009054906101000a900473ffffffffffffffffffffffffffffffffffffffff1673ffffffffffffffffffffffffffffffffffffffff16635cb93e84836040518263ffffffff1660e01b81526004016110e191906127d6565b600060405180830381865afa1580156110fe573d6000803e3d6000fd5b505050506040513d6000823e3d601f19601f820116820180604052508101906111279190614833565b9050919050565b7feefb95e842a3287179d933b4460be539a1d5af11aa8b325bb45c5c8dc92de4ed61115881611f2f565b600260009054906101000a900473ffffffffffffffffffffffffffffffffffffffff1673ffffffffffffffffffffffffffffffffffffffff16635ee95cae836040518263ffffffff1660e01b81526004016111b391906127d6565b600060405180830381600087803b1580156111cd57600080fd5b505af11580156111e1573d6000803e3d6000fd5b505050505050565b61121a7f43f25613eb2f15fb17222a5d424ca2655743e71265d98e4b93c05e5fb589ecde611215611f43565b61183b565b8061125257506112517feefb95e842a3287179d933b4460be539a1d5af11aa8b325bb45c5c8dc92de4ed61124c611f43565b61183b565b5b61129a5761125e611f43565b6040517fe2517d3f000000000000000000000000000000000000000000000000000000008152600401611291919061434b565b60405180910390fd5b600560009054906101000a900473ffffffffffffffffffffffffffffffffffffffff1673ffffffffffffffffffffffffffffffffffffffff166391c5bdee83836040518363ffffffff1660e01b81526004016112f7929190614372565b600060405180830381600087803b15801561131157600080fd5b505af1158015611325573d6000803e3d6000fd5b505050506000600560009054906101000a900473ffffffffffffffffffffffffffffffffffffffff1673ffffffffffffffffffffffffffffffffffffffff166320fe1b36846040518263ffffffff1660e01b815260040161138691906127d6565b600060405180830381865afa1580156113a3573d6000803e3d6000fd5b505050506040513d6000823e3d601f19601f820116820180604052508101906113cc91906142cd565b6060015182815181106113e2576113e161487c565b5b602002602001015190506113f58161212e565b505050565b7fddaa901e2fe3bda354fe0ede2785152d5c109282a613fe024a056a3e66c41bb361142481611f2f565b600160009054906101000a900473ffffffffffffffffffffffffffffffffffffffff1673ffffffffffffffffffffffffffffffffffffffff16637c1df52e836040518263ffffffff1660e01b815260040161147f91906127d6565b600060405180830381600087803b15801561149957600080fd5b505af11580156114ad573d6000803e3d6000fd5b505050505050565b6000600560009054906101000a900473ffffffffffffffffffffffffffffffffffffffff1673ffffffffffffffffffffffffffffffffffffffff166320fe1b36836040518263ffffffff1660e01b815260040161151291906127d6565b600060405180830381865afa15801561152f573d6000803e3d6000fd5b505050506040513d6000823e3d601f19601f8201168201806040525081019061155891906142cd565b9050611562611f43565b73ffffffffffffffffffffffffffffffffffffffff168160a0015173ffffffffffffffffffffffffffffffffffffffff16146115d3576040517f08c379a00000000000000000000000000000000000000000000000000000000081526004016115ca906148f7565b60405180910390fd5b8060800151600660009054906101000a900473ffffffffffffffffffffffffffffffffffffffff1673ffffffffffffffffffffffffffffffffffffffff1663dd62ed3e61161e611f43565b306040518363ffffffff1660e01b815260040161163c929190614917565b602060405180830381865afa158015611659573d6000803e3d6000fd5b505050506040513d601f19601f8201168201806040525081019061167d9190613b6e565b10156116be576040517f08c379a00000000000000000000000000000000000000000000000000000000081526004016116b59061498c565b60405180910390fd5b600660009054906101000a900473ffffffffffffffffffffffffffffffffffffffff1673ffffffffffffffffffffffffffffffffffffffff166323b872dd611704611f43565b3084608001516040518463ffffffff1660e01b8152600401611728939291906149ac565b6020604051808303816000875af1158015611747573d6000803e3d6000fd5b505050506040513d601f19601f8201168201806040525081019061176b91906149e3565b6117aa576040517f08c379a00000000000000000000000000000000000000000000000000000000081526004016117a190614a5c565b60405180910390fd5b600560009054906101000a900473ffffffffffffffffffffffffffffffffffffffff1673ffffffffffffffffffffffffffffffffffffffff16639994580b836040518263ffffffff1660e01b815260040161180591906127d6565b600060405180830381600087803b15801561181f57600080fd5b505af1158015611833573d6000803e3d6000fd5b505050505050565b600080600084815260200190815260200160002060000160008373ffffffffffffffffffffffffffffffffffffffff1673ffffffffffffffffffffffffffffffffffffffff16815260200190815260200160002060009054906101000a900460ff16905092915050565b7feefb95e842a3287179d933b4460be539a1d5af11aa8b325bb45c5c8dc92de4ed81565b7f43f25613eb2f15fb17222a5d424ca2655743e71265d98e4b93c05e5fb589ecde6118f381611f2f565b600460009054906101000a900473ffffffffffffffffffffffffffffffffffffffff1673ffffffffffffffffffffffffffffffffffffffff16639b66b139836040518263ffffffff1660e01b815260040161194e91906127d6565b600060405180830381600087803b15801561196857600080fd5b505af115801561197c573d6000803e3d6000fd5b505050505050565b6000801b81565b6060600160009054906101000a900473ffffffffffffffffffffffffffffffffffffffff1673ffffffffffffffffffffffffffffffffffffffff1663b05b10e96040518163ffffffff1660e01b8152600401600060405180830381865afa1580156119fa573d6000803e3d6000fd5b505050506040513d6000823e3d601f19601f82011682018060405250810190611a239190614b5d565b905090565b7fddaa901e2fe3bda354fe0ede2785152d5c109282a613fe024a056a3e66c41bb3611a5281611f2f565b600560009054906101000a900473ffffffffffffffffffffffffffffffffffffffff1673ffffffffffffffffffffffffffffffffffffffff166384a3492584846040518363ffffffff1660e01b8152600401611aaf929190614372565b600060405180830381600087803b158015611ac957600080fd5b505af1158015611add573d6000803e3d6000fd5b50505050505050565b611aee61251d565b600260009054906101000a900473ffffffffffffffffffffffffffffffffffffffff1673ffffffffffffffffffffffffffffffffffffffff1663b9db15b4836040518263ffffffff1660e01b8152600401611b4991906127d6565b600060405180830381865afa158015611b66573d6000803e3d6000fd5b505050506040513d6000823e3d601f19601f82011682018060405250810190611b8f9190614ba6565b9050919050565b60007f43f25613eb2f15fb17222a5d424ca2655743e71265d98e4b93c05e5fb589ecde611bc281611f2f565b600360009054906101000a900473ffffffffffffffffffffffffffffffffffffffff1673ffffffffffffffffffffffffffffffffffffffff1663c8012aa388888888886040518663ffffffff1660e01b8152600401611c25959493929190613e1a565b6020604051808303816000875af1158015611c44573d6000803e3d6000fd5b505050506040513d601f19601f82011682018060405250810190611c689190613b6e565b91505095945050505050565b611c7d82610cf3565b611c8681611f2f565b611c90838361203c565b50505050565b7f43f25613eb2f15fb17222a5d424ca2655743e71265d98e4b93c05e5fb589ecde81565b611cc2612570565b600460009054906101000a900473ffffffffffffffffffffffffffffffffffffffff1673ffffffffffffffffffffffffffffffffffffffff1663ef0e239b836040518263ffffffff1660e01b8152600401611d1d91906127d6565b600060405180830381865afa158015611d3a573d6000803e3d6000fd5b505050506040513d6000823e3d601f19601f82011682018060405250810190611d639190614bef565b9050919050565b7fddaa901e2fe3bda354fe0ede2785152d5c109282a613fe024a056a3e66c41bb3611d9481611f2f565b600560009054906101000a900473ffffffffffffffffffffffffffffffffffffffff1673ffffffffffffffffffffffffffffffffffffffff1663ede208fd84846040518363ffffffff1660e01b8152600401611df1929190614372565b600060405180830381600087803b158015611e0b57600080fd5b505af1158015611e1f573d6000803e3d6000fd5b50505050505050565b6060600360009054906101000a900473ffffffffffffffffffffffffffffffffffffffff1673ffffffffffffffffffffffffffffffffffffffff1663fac0992d6040518163ffffffff1660e01b8152600401600060405180830381865afa158015611e97573d6000803e3d6000fd5b505050506040513d6000823e3d601f19601f82011682018060405250810190611ec09190614d19565b905090565b60007f01ffc9a7000000000000000000000000000000000000000000000000000000007bffffffffffffffffffffffffffffffffffffffffffffffffffffffff1916827bffffffffffffffffffffffffffffffffffffffffffffffffffffffff1916149050919050565b611f4081611f3b611f43565b6123dc565b50565b600032905090565b6000611f57838361183b565b61203157600160008085815260200190815260200160002060000160008473ffffffffffffffffffffffffffffffffffffffff1673ffffffffffffffffffffffffffffffffffffffff16815260200190815260200160002060006101000a81548160ff021916908315150217905550611fce611f43565b73ffffffffffffffffffffffffffffffffffffffff168273ffffffffffffffffffffffffffffffffffffffff16847f2f8788117e7eff1d82e926ec794901d17c78024a50270940304540a733656f0d60405160405180910390a460019050612036565b600090505b92915050565b6000612048838361183b565b1561212357600080600085815260200190815260200160002060000160008473ffffffffffffffffffffffffffffffffffffffff1673ffffffffffffffffffffffffffffffffffffffff16815260200190815260200160002060006101000a81548160ff0219169083151502179055506120c0611f43565b73ffffffffffffffffffffffffffffffffffffffff168273ffffffffffffffffffffffffffffffffffffffff16847ff6391f5c32d9c69d2a47ea670b442974b53935d1edc7fd64eb21e047a839171b60405160405180910390a460019050612128565b600090505b92915050565b600560009054906101000a900473ffffffffffffffffffffffffffffffffffffffff1673ffffffffffffffffffffffffffffffffffffffff16637f0aa9c9826040518263ffffffff1660e01b81526004016121899190614e97565b602060405180830381865afa1580156121a6573d6000803e3d6000fd5b505050506040513d601f19601f820116820180604052508101906121ca91906149e3565b612209576040517f08c379a000000000000000000000000000000000000000000000000000000000815260040161220090614eff565b60405180910390fd5b600660009054906101000a900473ffffffffffffffffffffffffffffffffffffffff1673ffffffffffffffffffffffffffffffffffffffff1663a9059cbb8261012001518360a001516040518363ffffffff1660e01b815260040161226f929190614f1f565b6020604051808303816000875af115801561228e573d6000803e3d6000fd5b505050506040513d601f19601f820116820180604052508101906122b291906149e3565b6122f1576040517f08c379a00000000000000000000000000000000000000000000000000000000081526004016122e890614f94565b60405180910390fd5b600660009054906101000a900473ffffffffffffffffffffffffffffffffffffffff1673ffffffffffffffffffffffffffffffffffffffff1663a9059cbb8261010001518360c001516040518363ffffffff1660e01b8152600401612357929190614f1f565b6020604051808303816000875af1158015612376573d6000803e3d6000fd5b505050506040513d601f19601f8201168201806040525081019061239a91906149e3565b6123d9576040517f08c379a00000000000000000000000000000000000000000000000000000000081526004016123d090614f94565b60405180910390fd5b50565b6123e6828261183b565b6124295780826040517fe2517d3f000000000000000000000000000000000000000000000000000000008152600401612420929190614fb4565b60405180910390fd5b5050565b60405180608001604052806000815260200160608152602001600073ffffffffffffffffffffffffffffffffffffffff168152602001600081525090565b6040518061010001604052806000815260200160608152602001606081526020016060815260200160008152602001600073ffffffffffffffffffffffffffffffffffffffff1681526020016000151581526020016000151581525090565b6040518060e00160405280600081526020016060815260200160008152602001600081526020016000815260200160008152602001600073ffffffffffffffffffffffffffffffffffffffff1681525090565b6040518060e00160405280600081526020016060815260200160008152602001600081526020016000815260200160008152602001600073ffffffffffffffffffffffffffffffffffffffff1681525090565b6040518060e00160405280600081526020016060815260200160008152602001600081526020016000815260200160008152602001600073ffffffffffffffffffffffffffffffffffffffff1681525090565b6000604051905090565b600080fd5b600080fd5b60007fffffffff0000000000000000000000000000000000000000000000000000000082169050919050565b61260c816125d7565b811461261757600080fd5b50565b60008135905061262981612603565b92915050565b600060208284031215612645576126446125cd565b5b60006126538482850161261a565b91505092915050565b60008115159050919050565b6126718161265c565b82525050565b600060208201905061268c6000830184612668565b92915050565b600080fd5b600080fd5b600080fd5b60008083601f8401126126b7576126b6612692565b5b8235905067ffffffffffffffff8111156126d4576126d3612697565b5b6020830191508360018202830111156126f0576126ef61269c565b5b9250929050565b6000819050919050565b61270a816126f7565b811461271557600080fd5b50565b60008135905061272781612701565b92915050565b60008060008060008060a0878903121561274a576127496125cd565b5b600087013567ffffffffffffffff811115612768576127676125d2565b5b61277489828a016126a1565b9650965050602061278789828a01612718565b945050604061279889828a01612718565b93505060606127a989828a01612718565b92505060806127ba89828a01612718565b9150509295509295509295565b6127d0816126f7565b82525050565b60006020820190506127eb60008301846127c7565b92915050565b600081519050919050565b600082825260208201905092915050565b6000819050602082019050919050565b612826816126f7565b82525050565b600081519050919050565b600082825260208201905092915050565b60005b8381101561286657808201518184015260208101905061284b565b60008484015250505050565b6000601f19601f8301169050919050565b600061288e8261282c565b6128988185612837565b93506128a8818560208601612848565b6128b181612872565b840191505092915050565b600073ffffffffffffffffffffffffffffffffffffffff82169050919050565b60006128e7826128bc565b9050919050565b6128f7816128dc565b82525050565b600060e083016000830151612915600086018261281d565b506020830151848203602086015261292d8282612883565b9150506040830151612942604086018261281d565b506060830151612955606086018261281d565b506080830151612968608086018261281d565b5060a083015161297b60a086018261281d565b5060c083015161298e60c08601826128ee565b508091505092915050565b60006129a583836128fd565b905092915050565b6000602082019050919050565b60006129c5826127f1565b6129cf81856127fc565b9350836020820285016129e18561280d565b8060005b85811015612a1d57848403895281516129fe8582612999565b9450612a09836129ad565b925060208a019950506001810190506129e5565b50829750879550505050505092915050565b60006020820190508181036000830152612a4981846129ba565b905092915050565b600080600080600060808688031215612a6d57612a6c6125cd565b5b600086013567ffffffffffffffff811115612a8b57612a8a6125d2565b5b612a97888289016126a1565b95509550506020612aaa88828901612718565b9350506040612abb88828901612718565b9250506060612acc88828901612718565b9150509295509295909350565b600060208284031215612aef57612aee6125cd565b5b6000612afd84828501612718565b91505092915050565b6000608083016000830151612b1e600086018261281d565b5060208301518482036020860152612b368282612883565b9150506040830151612b4b60408601826128ee565b506060830151612b5e606086018261281d565b508091505092915050565b60006020820190508181036000830152612b838184612b06565b905092915050565b600081519050919050565b600082825260208201905092915050565b6000819050602082019050919050565b7f4e487b7100000000000000000000000000000000000000000000000000000000600052602160045260246000fd5b60028110612bf757612bf6612bb7565b5b50565b6000819050612c0882612be6565b919050565b6000612c1882612bfa565b9050919050565b612c2881612c0d565b82525050565b612c378161265c565b82525050565b6101e082016000820151612c54600085018261281d565b506020820151612c676020850182612c1f565b506040820151612c7a604085018261281d565b506060820151612c8d606085018261281d565b506080820151612ca0608085018261281d565b5060a0820151612cb360a085018261281d565b5060c0820151612cc660c085018261281d565b5060e0820151612cd960e085018261281d565b50610100820151612cee6101008501826128ee565b50610120820151612d036101208501826128ee565b50610140820151612d186101408501826128ee565b50610160820151612d2d610160850182612c2e565b50610180820151612d42610180850182612c2e565b506101a0820151612d576101a0850182612c2e565b506101c0820151612d6c6101c0850182612c2e565b50505050565b6000612d7e8383612c3d565b6101e08301905092915050565b6000602082019050919050565b6000612da382612b8b565b612dad8185612b96565b9350612db883612ba7565b8060005b83811015612de9578151612dd08882612d72565b9750612ddb83612d8b565b925050600181019050612dbc565b5085935050505092915050565b600061010083016000830151612e0f600086018261281d565b5060208301518482036020860152612e278282612883565b91505060408301518482036040860152612e418282612883565b91505060608301518482036060860152612e5b8282612d98565b9150506080830151612e70608086018261281d565b5060a0830151612e8360a08601826128ee565b5060c0830151612e9660c0860182612c2e565b5060e0830151612ea960e0860182612c2e565b508091505092915050565b60006020820190508181036000830152612ece8184612df6565b905092915050565b60008060408385031215612eed57612eec6125cd565b5b6000612efb85828601612718565b9250506020612f0c85828601612718565b9150509250929050565b600081519050919050565b600082825260208201905092915050565b6000819050602082019050919050565b600060e083016000830151612f5a600086018261281d565b5060208301518482036020860152612f728282612883565b9150506040830151612f87604086018261281d565b506060830151612f9a606086018261281d565b506080830151612fad608086018261281d565b5060a0830151612fc060a086018261281d565b5060c0830151612fd360c08601826128ee565b508091505092915050565b6000612fea8383612f42565b905092915050565b6000602082019050919050565b600061300a82612f16565b6130148185612f21565b93508360208202850161302685612f32565b8060005b8581101561306257848403895281516130438582612fde565b945061304e83612ff2565b925060208a0199505060018101905061302a565b50829750879550505050505092915050565b6000602082019050818103600083015261308e8184612fff565b905092915050565b6000819050919050565b6130a981613096565b81146130b457600080fd5b50565b6000813590506130c6816130a0565b92915050565b6000602082840312156130e2576130e16125cd565b5b60006130f0848285016130b7565b91505092915050565b61310281613096565b82525050565b600060208201905061311d60008301846130f9565b92915050565b61312c816128dc565b811461313757600080fd5b50565b60008135905061314981613123565b92915050565b60008060408385031215613166576131656125cd565b5b6000613174858286016130b7565b92505060206131858582860161313a565b9150509250929050565b6000819050919050565b60006131b46131af6131aa846128bc565b61318f565b6128bc565b9050919050565b60006131c682613199565b9050919050565b60006131d8826131bb565b9050919050565b6131e8816131cd565b82525050565b600060208201905061320360008301846131df565b92915050565b600080600060408486031215613222576132216125cd565b5b600084013567ffffffffffffffff8111156132405761323f6125d2565b5b61324c868287016126a1565b9350935050602061325f86828701612718565b9150509250925092565b600080fd5b7f4e487b7100000000000000000000000000000000000000000000000000000000600052604160045260246000fd5b6132a682612872565b810181811067ffffffffffffffff821117156132c5576132c461326e565b5b80604052505050565b60006132d86125c3565b90506132e4828261329d565b919050565b600067ffffffffffffffff8211156133045761330361326e565b5b61330d82612872565b9050602081019050919050565b82818337600083830152505050565b600061333c613337846132e9565b6132ce565b90508281526020810184848401111561335857613357613269565b5b61336384828561331a565b509392505050565b600082601f8301126133805761337f612692565b5b8135613390848260208601613329565b91505092915050565b600067ffffffffffffffff8211156133b4576133b361326e565b5b602082029050602081019050919050565b600080fd5b600080fd5b600281106133dc57600080fd5b50565b6000813590506133ee816133cf565b92915050565b600060a0828403121561340a576134096133c5565b5b61341460a06132ce565b90506000613424848285016133df565b600083015250602061343884828501612718565b602083015250604061344c84828501612718565b604083015250606061346084828501612718565b60608301525060806134748482850161313a565b60808301525092915050565b600061349361348e84613399565b6132ce565b90508083825260208201905060a084028301858111156134b6576134b561269c565b5b835b818110156134df57806134cb88826133f4565b84526020840193505060a0810190506134b8565b5050509392505050565b600082601f8301126134fe576134fd612692565b5b813561350e848260208601613480565b91505092915050565b6000806000606084860312156135305761352f6125cd565b5b600084013567ffffffffffffffff81111561354e5761354d6125d2565b5b61355a8682870161336b565b935050602084013567ffffffffffffffff81111561357b5761357a6125d2565b5b6135878682870161336b565b925050604084013567ffffffffffffffff8111156135a8576135a76125d2565b5b6135b4868287016134e9565b9150509250925092565b600060e0830160008301516135d6600086018261281d565b50602083015184820360208601526135ee8282612883565b9150506040830151613603604086018261281d565b506060830151613616606086018261281d565b506080830151613629608086018261281d565b5060a083015161363c60a086018261281d565b5060c083015161364f60c08601826128ee565b508091505092915050565b6000602082019050818103600083015261367481846135be565b905092915050565b600081519050919050565b600082825260208201905092915050565b6000819050602082019050919050565b60006080830160008301516136c0600086018261281d565b50602083015184820360208601526136d88282612883565b91505060408301516136ed60408601826128ee565b506060830151613700606086018261281d565b508091505092915050565b600061371783836136a8565b905092915050565b6000602082019050919050565b60006137378261367c565b6137418185613687565b93508360208202850161375385613698565b8060005b8581101561378f5784840389528151613770858261370b565b945061377b8361371f565b925060208a01995050600181019050613757565b50829750879550505050505092915050565b600060208201905081810360008301526137bb818461372c565b905092915050565b600060e0830160008301516137db600086018261281d565b50602083015184820360208601526137f38282612883565b9150506040830151613808604086018261281d565b50606083015161381b606086018261281d565b50608083015161382e608086018261281d565b5060a083015161384160a086018261281d565b5060c083015161385460c08601826128ee565b508091505092915050565b6000602082019050818103600083015261387981846137c3565b905092915050565b600060e083016000830151613899600086018261281d565b50602083015184820360208601526138b18282612883565b91505060408301516138c6604086018261281d565b5060608301516138d9606086018261281d565b5060808301516138ec608086018261281d565b5060a08301516138ff60a086018261281d565b5060c083015161391260c08601826128ee565b508091505092915050565b600060208201905081810360008301526139378184613881565b905092915050565b600081519050919050565b600082825260208201905092915050565b6000819050602082019050919050565b600060e083016000830151613983600086018261281d565b506020830151848203602086015261399b8282612883565b91505060408301516139b0604086018261281d565b5060608301516139c3606086018261281d565b5060808301516139d6608086018261281d565b5060a08301516139e960a086018261281d565b5060c08301516139fc60c08601826128ee565b508091505092915050565b6000613a13838361396b565b905092915050565b6000602082019050919050565b6000613a338261393f565b613a3d818561394a565b935083602082028501613a4f8561395b565b8060005b85811015613a8b5784840389528151613a6c8582613a07565b9450613a7783613a1b565b925060208a01995050600181019050613a53565b50829750879550505050505092915050565b60006020820190508181036000830152613ab78184613a28565b905092915050565b600082825260208201905092915050565b6000613adc8385613abf565b9350613ae983858461331a565b613af283612872565b840190509392505050565b600060a0820190508181036000830152613b1881888a613ad0565b9050613b2760208301876127c7565b613b3460408301866127c7565b613b4160608301856127c7565b613b4e60808301846127c7565b979650505050505050565b600081519050613b6881612701565b92915050565b600060208284031215613b8457613b836125cd565b5b6000613b9284828501613b59565b91505092915050565b600067ffffffffffffffff821115613bb657613bb561326e565b5b602082029050602081019050919050565b6000613bda613bd5846132e9565b6132ce565b905082815260208101848484011115613bf657613bf5613269565b5b613c01848285612848565b509392505050565b600082601f830112613c1e57613c1d612692565b5b8151613c2e848260208601613bc7565b91505092915050565b600081519050613c4681613123565b92915050565b600060e08284031215613c6257613c616133c5565b5b613c6c60e06132ce565b90506000613c7c84828501613b59565b600083015250602082015167ffffffffffffffff811115613ca057613c9f6133ca565b5b613cac84828501613c09565b6020830152506040613cc084828501613b59565b6040830152506060613cd484828501613b59565b6060830152506080613ce884828501613b59565b60808301525060a0613cfc84828501613b59565b60a08301525060c0613d1084828501613c37565b60c08301525092915050565b6000613d2f613d2a84613b9b565b6132ce565b90508083825260208201905060208402830185811115613d5257613d5161269c565b5b835b81811015613d9957805167ffffffffffffffff811115613d7757613d76612692565b5b808601613d848982613c4c565b85526020850194505050602081019050613d54565b5050509392505050565b600082601f830112613db857613db7612692565b5b8151613dc8848260208601613d1c565b91505092915050565b600060208284031215613de757613de66125cd565b5b600082015167ffffffffffffffff811115613e0557613e046125d2565b5b613e1184828501613da3565b91505092915050565b60006080820190508181036000830152613e35818789613ad0565b9050613e4460208301866127c7565b613e5160408301856127c7565b613e5e60608301846127c7565b9695505050505050565b600060808284031215613e7e57613e7d6133c5565b5b613e8860806132ce565b90506000613e9884828501613b59565b600083015250602082015167ffffffffffffffff811115613ebc57613ebb6133ca565b5b613ec884828501613c09565b6020830152506040613edc84828501613c37565b6040830152506060613ef084828501613b59565b60608301525092915050565b600060208284031215613f1257613f116125cd565b5b600082015167ffffffffffffffff811115613f3057613f2f6125d2565b5b613f3c84828501613e68565b91505092915050565b600067ffffffffffffffff821115613f6057613f5f61326e565b5b602082029050602081019050919050565b600081519050613f80816133cf565b92915050565b613f8f8161265c565b8114613f9a57600080fd5b50565b600081519050613fac81613f86565b92915050565b60006101e08284031215613fc957613fc86133c5565b5b613fd46101e06132ce565b90506000613fe484828501613b59565b6000830152506020613ff884828501613f71565b602083015250604061400c84828501613b59565b604083015250606061402084828501613b59565b606083015250608061403484828501613b59565b60808301525060a061404884828501613b59565b60a08301525060c061405c84828501613b59565b60c08301525060e061407084828501613b59565b60e08301525061010061408584828501613c37565b6101008301525061012061409b84828501613c37565b610120830152506101406140b184828501613c37565b610140830152506101606140c784828501613f9d565b610160830152506101806140dd84828501613f9d565b610180830152506101a06140f384828501613f9d565b6101a0830152506101c061410984828501613f9d565b6101c08301525092915050565b600061412961412484613f45565b6132ce565b9050808382526020820190506101e0840283018581111561414d5761414c61269c565b5b835b8181101561417757806141628882613fb2565b8452602084019350506101e08101905061414f565b5050509392505050565b600082601f83011261419657614195612692565b5b81516141a6848260208601614116565b91505092915050565b600061010082840312156141c6576141c56133c5565b5b6141d16101006132ce565b905060006141e184828501613b59565b600083015250602082015167ffffffffffffffff811115614205576142046133ca565b5b61421184828501613c09565b602083015250604082015167ffffffffffffffff811115614235576142346133ca565b5b61424184828501613c09565b604083015250606082015167ffffffffffffffff811115614265576142646133ca565b5b61427184828501614181565b606083015250608061428584828501613b59565b60808301525060a061429984828501613c37565b60a08301525060c06142ad84828501613f9d565b60c08301525060e06142c184828501613f9d565b60e08301525092915050565b6000602082840312156142e3576142e26125cd565b5b600082015167ffffffffffffffff811115614301576143006125d2565b5b61430d848285016141af565b91505092915050565b61431f816128dc565b82525050565b7f556e617574686f72697a656420526f6c65000000000000000000000000000000815250565b60006040820190506143606000830184614316565b61436c60208301614325565b92915050565b600060408201905061438760008301856127c7565b61439460208301846127c7565b9392505050565b600067ffffffffffffffff8211156143b6576143b561326e565b5b602082029050602081019050919050565b600060e082840312156143dd576143dc6133c5565b5b6143e760e06132ce565b905060006143f784828501613b59565b600083015250602082015167ffffffffffffffff81111561441b5761441a6133ca565b5b61442784828501613c09565b602083015250604061443b84828501613b59565b604083015250606061444f84828501613b59565b606083015250608061446384828501613b59565b60808301525060a061447784828501613b59565b60a08301525060c061448b84828501613c37565b60c08301525092915050565b60006144aa6144a58461439b565b6132ce565b905080838252602082019050602084028301858111156144cd576144cc61269c565b5b835b8181101561451457805167ffffffffffffffff8111156144f2576144f1612692565b5b8086016144ff89826143c7565b855260208501945050506020810190506144cf565b5050509392505050565b600082601f83011261453357614532612692565b5b8151614543848260208601614497565b91505092915050565b600060208284031215614562576145616125cd565b5b600082015167ffffffffffffffff8111156145805761457f6125d2565b5b61458c8482850161451e565b91505092915050565b600060408201905081810360008301526145b0818587613ad0565b90506145bf60208301846127c7565b949350505050565b60006145d28261282c565b6145dc8185613abf565b93506145ec818560208601612848565b6145f581612872565b840191505092915050565b600081519050919050565b600082825260208201905092915050565b6000819050602082019050919050565b60a0820160008201516146426000850182612c1f565b506020820151614655602085018261281d565b506040820151614668604085018261281d565b50606082015161467b606085018261281d565b50608082015161468e60808501826128ee565b50505050565b60006146a0838361462c565b60a08301905092915050565b6000602082019050919050565b60006146c482614600565b6146ce818561460b565b93506146d98361461c565b8060005b8381101561470a5781516146f18882614694565b97506146fc836146ac565b9250506001810190506146dd565b5085935050505092915050565b6000606082019050818103600083015261473181866145c7565b9050818103602083015261474581856145c7565b9050818103604083015261475981846146b9565b9050949350505050565b600060e08284031215614779576147786133c5565b5b61478360e06132ce565b9050600061479384828501613b59565b600083015250602082015167ffffffffffffffff8111156147b7576147b66133ca565b5b6147c384828501613c09565b60208301525060406147d784828501613b59565b60408301525060606147eb84828501613b59565b60608301525060806147ff84828501613b59565b60808301525060a061481384828501613b59565b60a08301525060c061482784828501613c37565b60c08301525092915050565b600060208284031215614849576148486125cd565b5b600082015167ffffffffffffffff811115614867576148666125d2565b5b61487384828501614763565b91505092915050565b7f4e487b7100000000000000000000000000000000000000000000000000000000600052603260045260246000fd5b7f556e6175746f72697a6564204f6e776572000000000000000000000000000000600082015250565b60006148e1601183613abf565b91506148ec826148ab565b602082019050919050565b60006020820190508181036000830152614910816148d4565b9050919050565b600060408201905061492c6000830185614316565b6149396020830184614316565b9392505050565b7f496e73756666696369656e7420416c6c6f77616e636500000000000000000000600082015250565b6000614976601683613abf565b915061498182614940565b602082019050919050565b600060208201905081810360008301526149a581614969565b9050919050565b60006060820190506149c16000830186614316565b6149ce6020830185614316565b6149db60408301846127c7565b949350505050565b6000602082840312156149f9576149f86125cd565b5b6000614a0784828501613f9d565b91505092915050565b7f5061796d656e74204661696c6564000000000000000000000000000000000000600082015250565b6000614a46600e83613abf565b9150614a5182614a10565b602082019050919050565b60006020820190508181036000830152614a7581614a39565b9050919050565b600067ffffffffffffffff821115614a9757614a9661326e565b5b602082029050602081019050919050565b6000614abb614ab684614a7c565b6132ce565b90508083825260208201905060208402830185811115614ade57614add61269c565b5b835b81811015614b2557805167ffffffffffffffff811115614b0357614b02612692565b5b808601614b108982613e68565b85526020850194505050602081019050614ae0565b5050509392505050565b600082601f830112614b4457614b43612692565b5b8151614b54848260208601614aa8565b91505092915050565b600060208284031215614b7357614b726125cd565b5b600082015167ffffffffffffffff811115614b9157614b906125d2565b5b614b9d84828501614b2f565b91505092915050565b600060208284031215614bbc57614bbb6125cd565b5b600082015167ffffffffffffffff811115614bda57614bd96125d2565b5b614be684828501613c4c565b91505092915050565b600060208284031215614c0557614c046125cd565b5b600082015167ffffffffffffffff811115614c2357614c226125d2565b5b614c2f848285016143c7565b91505092915050565b600067ffffffffffffffff821115614c5357614c5261326e565b5b602082029050602081019050919050565b6000614c77614c7284614c38565b6132ce565b90508083825260208201905060208402830185811115614c9a57614c9961269c565b5b835b81811015614ce157805167ffffffffffffffff811115614cbf57614cbe612692565b5b808601614ccc8982614763565b85526020850194505050602081019050614c9c565b5050509392505050565b600082601f830112614d0057614cff612692565b5b8151614d10848260208601614c64565b91505092915050565b600060208284031215614d2f57614d2e6125cd565b5b600082015167ffffffffffffffff811115614d4d57614d4c6125d2565b5b614d5984828501614ceb565b91505092915050565b6101e082016000820151614d79600085018261281d565b506020820151614d8c6020850182612c1f565b506040820151614d9f604085018261281d565b506060820151614db2606085018261281d565b506080820151614dc5608085018261281d565b5060a0820151614dd860a085018261281d565b5060c0820151614deb60c085018261281d565b5060e0820151614dfe60e085018261281d565b50610100820151614e136101008501826128ee565b50610120820151614e286101208501826128ee565b50610140820151614e3d6101408501826128ee565b50610160820151614e52610160850182612c2e565b50610180820151614e67610180850182612c2e565b506101a0820151614e7c6101a0850182612c2e565b506101c0820151614e916101c0850182612c2e565b50505050565b60006101e082019050614ead6000830184614d62565b92915050565b7f5374657020636f6e6669726d6174696f6e7320696e636f6d706c657465000000600082015250565b6000614ee9601d83613abf565b9150614ef482614eb3565b602082019050919050565b60006020820190508181036000830152614f1881614edc565b9050919050565b6000604082019050614f346000830185614316565b614f4160208301846127c7565b9392505050565b7f4661696c656420746f2072656c656173652066756e6473000000000000000000600082015250565b6000614f7e601783613abf565b9150614f8982614f48565b602082019050919050565b60006020820190508181036000830152614fad81614f71565b9050919050565b6000604082019050614fc96000830185614316565b614fd660208301846130f9565b939250505056fea264697066735822122007d7b5ac7a804ee75ce48f03f8ddb0fd93db58291e45990d328a9cd5f90f15ea64736f6c63430008180033",
  "linkReferences": {},
  "deployedLinkReferences": {}
}